:101B8900706F776572206B657920696E0D0A006D3B
:101B99006F64653A202562752C2562750D0A0073FC
:101BA900746172742E2E2E2E2E2E2E2E2E2E2E2E49
:101BB9002E2E2E2E0D0A0062616E6420766F6C2027
:101BC9003D2025362E32660D0A00A5038B0000A59F
:101BD900038B00000000000000000000000000006E
:101BE90000000000000000000000000000000000EC
:101BF90000000000000000000000000000000000DC
:101C090000000000000000000000000000000000CB
:1014EC004100360041004200410088004400830066
:1014FC0000005A41007F0041008000410082004101
:10150C00000B00410020004100350044004D00005C
:10151C000000440051000000004400550000000091
:10152C0041005B0041005C0041005E0041000A008C
:10153C0041009E004100740041003F0041007300D7
:10154C00420038000042004B00FF42009001004175
:10155C0000430041003C0141004501410037054179
:10156C000081074100440141004800450005A503E6
:10157C0084012D45008BA50384032F450075A5031D
:10158C0082032D4500A1A5038B20534500A6A5037E
:10159C008B2154460092A5048207013345007AA59D
:1015AC00038C2054410087004400AC000000004430
:1015BC0000010000000042003A0000420049000017
:1015CC0042009F00004200890000420040000041A0
:1015DC00005D004100AB00420059000041000000DA
:061F21009000D812081622
:101F27009000DC1208220000000090003FE07024BF
:101F37009000D8E0FCA3E0FDA3E0FEA3E0FFA3121E
:101F470008169000DCE0FCA3E0FDA3E0FEA3E0FFA1
:101F5700122039229000D8E0FCA3E0FDA3E0FEA305
:101F6700E0FFA31208169000DCE0FCA3E0FDA3E06D
:071F7700FEA3E0FF12203978
:011F7E002240
:060003009001081208162E
:1000090090010874FF1207E3EC4D4E4F604F9001C9
:100019000C12082200000000E47F4CFEFDFC900158
:100029000CE0F8A3E0F9A3E0FAA3E0FBC31207BDD3
:1000390050CE0000000090010CE0FCA3E0FDA3E01D
:10004900FEA3E0FFE4FAF9F8EF2401FFEA3EFEE936
:0D0059003DFDE83CFC90010C12081680BB38
:010066002277
:102236009000D8EBF0A3EAF0A3E9F09000D8E0FB19
:10224600A3E0FAA3E0F912067360189000D8E0A3A1
:10225600E475F0011206CBA9F0FA120673FF1222FA
:04226600D380D82227
:10226A0090013AEBF0A3EAF0A3E9F090013AE0FB1F
:10227A00A3E0FAA3E0F9120673601890013AE0A30A
:10228A00E475F0011206CBA9F0FA120673FF1222C6
:04229A00D380D822F3
:1021C9009000DEEBF0A3EAF0A3E9F0A31208169061
:1021D90000E174FF1207E3EC4D4E4F60199000DEE9
:1021E900E0FBA3E475F0011206CBA9F0FA1206731D
:0721F900FF1222D380D9225E
:101D9200A2AF920AC2AF75C7AA75C755439F01A2E7
:101DA2000A92AFA2AF920AC2AF75C7AA75C75543CE
:101DB200A504A20A92AF75A604E4F5A775AE0F7545
:101DC200AFE1A2AF920AC2AF75C7AA75C75543A4C5
:101DD20001A20A92AFE59F20E6FBA2AF920AC2AF30
:101DE20075C7AA75C75553A5FBA20A92AFA2AF92B7
:101DF2000AC2AF75C7AA75C755539FFEA20A92AF12
:011E020022BD
:1010EE00A2AF920AC2AF75C7AA75C755439F01A298
:1010FE000A92AF75AF0475A60DE4F5A7A2AF920ADA
:10110E00C2AF75C7AA75C75543A401A20A92AF9084
:10111E0000C5E5AEF0E054F0A3F0E0648060030299
:10112E0011B69000C5E0540FF075A60CE4F5A7A219
:10113E00AF920AC2AF75C7AA75C75543A401A20ADA
:10114E0092AF9000C4E5AEF0E075F010A4FFA3E0FE
:10115E007C002FFDEC35F0FCE41203119000C71259
:10116E000816E4FFFE7D407C409000C7E0F8A3E047
:10117E00F9A3E0FAA3E0FB120166E4FBFA798078AA
:10118E004012026F9000CB120816E4FFFE7D047C25
:10119E00C29000CBE0F8A3E0F9A3E0FAA3E0FB12C3
:1011AE00007590009A1208169000C6E070689000C4
:1011BE00C5E0540FF075A60CE4F5A7A2AF920AC2D3
:1011CE00AF75C7AA75C75543A401A20A92AF900086
:1011DE00C4E5AEF0E075F010A4FFA3E07C002FFD97
:1011EE00EC35F0FCE41203119000C7120816E4FF70
:1011FE00FE7D407C409000C7E0F8A3E0F9A3E0FA42
:10120E00A3E0FB120166E4FBFA7980784012026FCC
:10121E0090009A1208169000C6E0649060030212C5
:10122E00B375A60EF5A7A2AF920AC2AF75C7AA757F
:10123E00C75543A401A20A92AF9000C4E5AEF07563
:10124E00A60FE4F5A7A2AF920AC2AF75C7AA75C7DB
:10125E005543A401A20A92AFA3E5AEF0E0540FF0FD
:10126E009000C4E075F010A4FFA3E07C002FFDEC0D
:10127E0035F0FCE41203119000C7120816E4FFFECD
:10128E007D407C409000C7E0F8A3E0F9A3E0FAA30C
:10129E00E0FB120166E4FBFA7980784012026F904F
:1012AE00009A120816A2AF920AC2AF75C7AA75C7E6
:0812BE0055539FFEA20A92AFF6
:0112C6002205
:0F199F009000DEEBF0A3EAF0A3E9F0A312081624
:1019AE009000E512082200000000E49000E9F0A388
:1019BE00F0A3F09000E5120822000000009000E174
:1019CE00E0FCA3E0FDA3E0FEA3E0FFA3E0F8A3E0AC
:1019DE00F9A3E0FAA3E0FBC31207BD50529000E555
:1019EE00E0A3E0A3E0FEA3E0FF9000DEE0FBA3E0B7
:1019FE00FAA3E0F98F828E8312068CFF9000EBE043
:101A0E002FF09000EAE03400F09000E5E0FCA3E057
:101A1E00FDA3E0A3E0FFE4FAF9F8EF2401FFEA3EAC
:101A2E00FEE93DFDE83CFC9000E5120816808E9024
:0B1A3E0000EAE0A3E09000E9F0E0FF08
:011A4900227A
:05213C009000D8EFF057
:102141007BFF7A1B79D378D97C007D017E007F05E6
:1021510012064D9000D8E09000DCF07B017A007906
:10216100D97F047E007D007C0012199F9000DDEF75
:10217100F07B017A0079D97F057E007D007C001219
:0221810021C972
:012183002239
:051AF500900110EFF06C
:101AFA007BFF7A1B79D878117C017D017E007F05F6
:101B0A0012064D900110E0D3940A4003740AF09033
:101B1A000110E01208731B45001B4C011B54021BE9
:101B2A0054031B54041B54051B54061B54071B5413
:101B3A00081B54091B540A00001B61E4900114F0AD
:101B4A0080159001147404F0800D900110E075F076
:101B5A0003A404900114F07B017A0179117F047EB9
:101B6A00007D007C0012199F900115EFF07B017A2D
:0E1B7A000179117F057E007D007C001221C9DB
:011B8800223A
:1012C7007BFF7A1B79DD78C47C007D017E007F146B
:1012D70012064DE49000D8F0A3F0A31208220000F4
:1012E700000043E80853E8F843E101C2EFD2EE30CB
:1012F700EFFDAFC390003AE4F0A3EFF090003AE0BF
:10130700FEA3E0C4F8540FC868FFEEC454F0489039
:10131700003AF0A3EFF090003AE0FEA3E0FFE5C249
:10132700540FFDEEEF4DFF90003AEEF0A3EFF053B0
:10133700E1FE53E8F043E80543B11053B2EFE4F59B
:10134700F643F62043E101C2EFD2EE30EFFDAFC323
:101357009000D8E4F0A3EFF09000D8E0FEA3E0C43B
:10136700F8540FC868FFEEC454F0489000D8F0A3B3
:10137700EFF09000D8E0FEA3E0FFE5C2540FFDEECA
:10138700EF4DFF9000D8EEF0A3EFF09000D8E0FC0F
:10139700A3E0FDE412031190009AE0F8A3E0F9A39B
:1013A700E0FAA3E0FB1201667B007AC079BE7844BD
:1013B70012026F9000DA1208169000DAE0FCA3E040
:1013C700FDA3E0FEA3E0FF12034A900049EEF0A35D
:0B13D700EFF09000AB7401F053E1FE5A
:0113E20022E8
:10179000A2AF9209C2AF75C7AA75C755439F01A2F0
:1017A0000992AF75A630E4F5A775AF04A2AF920910
:1017B000C2AF75C7AA75C75543A401A20992AF90DD
:1017C0000116E5AEF075A631E4F5A7A2AF9209C205
:1017D000AF75C7AA75C75543A401A20992AFA3E587
:1017E000AEF0A2AF9209C2AF75C7AA75C755539F95
:1017F000FEA20992AF900116E025E0FFE433FEA3BC
:10180000E054017C002FFFEC3EA3F0A3EFF0E024B6
:10181000F1F0900118E034FFF0E0A3E054019001F2
:1018200017F0A3E0FEA3E0FFEEC313EF1390011641
:10183000F075C7AA75C755E0F58475C7AA75C75571
:04184000A3E0F585A7
:011844002281
:101C190053B1DF43B220A2AF920AC2AF75C7AA750A
:101C2900C75543910143C60475C7AA75C755539152
:101C3900FEA20A92AFA2AF920A75C7AA75C75575D7
:101C4900910153B7F843B70275C7AA75C755E4F5AB
:101C590091A20A92AFA2AF920A75C7AA75C7557524
:101C6900910153B7CF75C7AA75C755F591A20A92C5
:101C7900AF43DF0153DFF975D10175D9FFF5D4758C
:101C8900DCFF43EF0843F708439B08D2AFD2DE22BB
:03006B00020F0C75
:100F0C00C0E0C083C082C0D075D000C000C004C097
:100F1C0005C006C007C2DD900043E0603190004878
:100F2C00E0FF900039E02FF0900038E03400F0E062
:100F3C00FEA3E0C394FEEE64809481404990003897
:100F4C007401F0A374FEF0900043E4F0803890003C
:100F5C0038E0FEA3E0FF900048E0FDC3EF9DFFEEFC
:100F6C009400900038F0A3EFF0900038E0FEA3E07E
:100F7C00D39400EE64809480500C900038E4F0A37D
:100F8C0004F0900043F090004BE0A3E05401FF907C
:100F9C000090E4F0A3EFF090004BE0FEA3E0FFEE36
:100FAC00C313FEEF13FF90004BEEF0A3EFF0900095
:100FBC0090E0FEA3E04E600790004BE064B4F0902C
:100FCC000044E02407FF90004BE0FCA3E0AE04A833
:100FDC0007088005CEC313CE13D8F9FF90003DEE61
:100FEC00F0A3EFF0900038E0FEA3E0FF900081E06A
:100FFC00FDEFA805088006CEA2E713CE13D8F8FFA4
:10100C00900046EEF0A3EFF0900046E0FEA3E0FF68
:10101C0090003EE02FF090003DE03EF0E0FEA3E0BB
:10102C00FF900098E0FCA3E0FDC3EF9DFFEE9C90C9
:10103C00003DF0A3EFF090003DE0FEA3E0FF900038
:10104C0037E0FDEFA805088006CEA2E713CE13D833
:10105C00F8FF90003DEEF0A3EFF0900098E0FEA3B7
:10106C00E0FF90003EE02FF090003DE03EF0E0FE0F
:10107C00A3E0FF900098EEF0A3EFF090003DE0A30A
:10108C00E0EE540190003DF0A3EFF090003DE0FE47
:10109C00A3E04E700790003DF0A304F090003DE0FB
:1010AC00FEA3E0B4FF0EEEB4010A90003D7401F013
:1010BC00A374FEF090003DE0FEA3E0EEFF3395E05C
:1010CC00EF5401F5D490003DE0A3E0F5DCD2DED086
:1010DC0007D006D005D004D000D0D0D082D083D099
:0210EC00E032F0
:101A4A00900045E01208731A67011A7F021A970379
:101A5A001AAF041AC6051ADD0600001AF4900037F8
:101A6A007405F09000817407F09000447401F0E46A
:101A7A00900048F0229000377403F09000817407B8
:101A8A00F09000447402F0E4900048F0229000378D
:101A9A007401F09000817407F09000447403F0E43C
:101AAA00900048F0229000377406F090008174018B
:101ABA00F0900044F09000487405F02290003774CA
:101ACA0004F090008114F090004414F090004874DF
:101ADA0006F0229000377402F09000817404F090AE
:0B1AEA00004414F09000487407F02244
:1020F3009000D8EFF0E01208732112012119022198
:102103002003212704212E052135060000213B90C1
:102113000088741EF0229000887417F022900088C3
:10212300741DF022900088741CF0229000887419AA
:09213300F022900088741AF022D9
:1022000030951C90000AE070167F0AFEFDFC121F3C
:102210002130952190000A7401F090009EF0222058
:1022200095137F0A7E007D007C00121F21209505FA
:06223000E490000AF02218
:1016C90090009EE06401600302178FF07BFF7A1B94
:1016D9007989122236900074E07065D28304F07F14
:1016E900647E007D007C00121F21D292D2907FD0AF
:1016F9007E077D007C00121F21C2907F647E007DE1
:10170900007C00121F21D2917FE87E037D007C00BE
:10171900121F217B017A0079057F057E007D007CFF
:10172900001221C97F0A7E007D007C00121F217FE3
:101739000512213C7F0A7E007D007C00121F2122B8
:101749007FE87E037D007C00121F217B017A0079EE
:101759008B7F057E007D007C001221C97F0A7E00F7
:101769007D007C00121F217FAC7E0D7D007C001264
:101779001F21C2917F647E007D007C00121F21C25F
:0717890083E4900074F022DC
:1013E3009000ABE0640160030214EBF0900049E06D
:1013F300FEA3E0FF900059EEF0A3EFF0900059E058
:10140300FEA3E0C394B8EE940B40297F0A7E007DCF
:10141300007C00121F21900059E0FEA3E0C394B8A2
:10142300EE940B50030214EBE490007FF0A3F090D2
:101433000082F022900059E0FEA3E0C39453EE949F
:1014430007402E7F0A7E007D007C00121F21900042
:1014530059E0FEA3E0C39453EE940750030214EB48
:10146300E490007FF0A3F090008204F0900035F048
:1014730022900059E0FEA3E0C3940EEE9406402DA3
:101483007F0A7E007D007C00121F21900059E0FE40
:10149300A3E0C3940EEE9406404EE490007FF0A3C5
:1014A30004F0E4900082F090002004F022900059B0
:1014B300E0FEA3E0C394E8EE9403402C7F0A7E0091
:1014C3007D007C00121F21900059E0FEA3E0C3942D
:1014D300E8EE9403401290007F7401F0E4A3F090CF
:0914E3000082F090000B04F022DD
:1015ED00900000E060030216AF900082E0605A9018
:1015FD000055E0FCA3E0FDA3E0FEA3E0FFE4FAF953
:10160D00F8EF2401FFEA3EFEE93DFDE83CFC9000C9
:10161D0055120816900083E0FCA3E0FDA3E0FEA3A5
:10162D00E0FF900055E0F8A3E0F9A3E0FAA3E0FB9A
:10163D00C31207BD50030216C89000357402F09016
:10164D00005E14F0900000F022E47F01FEFDFC909E
:10165D000055E0F8A3E0F9A3E0FAA3E0FBC31207FD
:10166D00BD5006E4900035F022900083E0FCA3E02D
:10167D00FDA3E0FEA3E0FF900055E0F8A3E0F9A381
:10168D00E0FAA3E0FBC31207BD500B9000357401C7
:10169D00F090005EF0229000357402F090005E1420
:1016AD00F022900082E07013900000F0900055122F
:0B16BD00082200000000E4900035F05F
:0116C80022FF
:100D1C007BFF7A1B79F178C47C007D017E007F1407
:100D2C0012064D90000BE0B4012390007FE0701D83
:100D3C0090000BF07B017A0079A67F05FEFDFC127A
:100D4C0021C97F0A7E007D007C00121F21900020AB
:100D5C00E0B40123900080E0701D900020F07B0136
:100D6C007A0079A17F05FEFDFC1221C97F0A7E0065
:100D7C007D007C00121F2190005EE0640160030284
:100D8C000F0BF0900035E064016003020E769000CA
:100D9C0087E0702B7B017A0079757F05FEFDFC12D4
:100DAC0021C97F0A7E007D007C00121F2190005516
:100DBC0012082200000000E4900035F0020E76903C
:100DCC000087E064016003020E76900045E004F0B9
:100DDC00E0B407037401F0900045E0FF1220F3909B
:100DEC0000367401F0C2917F0A7E007D007C0012F7
:100DFC001F21121A4A900088E0FF12213C7F0A7EC4
:100E0C00007D007C00121F217F0A7E007D007C008B
:100E1C00121F21D2917F647E007D007C00121F2165
:100E2C007B017A0079C49000DB74FFF0A3741BF093
:100E3C00A37498F0900045E09000DEF0900088E0FC
:100E4C009000DFF01208FE7B017A0079C412223682
:100E5C007F147E007D007C00121F2190005512082B
:100E6C002200000000E4900035F0900035E06402B0
:100E7C006003020F0B900087E0704C7B017A0079C5
:100E8C007A7F05FEFDFC1221C97F0A7E007D007C65
:100E9C0000121F217F647E007D007C00121F217FC9
:100EAC00011220F3900088E0FF12213C7F647E0049
:100EBC007D007C00121F21D2DF90003F7401F09066
:100ECC000087F0C29280297B017A00797A7F057EB7
:100EDC00007D007C001221C97F0A7E007D007C0011
:100EEC00121F21C2DFE490003FF0900087F0D292F5
:0F0EFC0090005512082200000000E4900035F02D
:010F0B0022C3
:101845007BFF7A1C790578B07C007D017E007F14D2
:1018550012064D7F007EC27D017C00121C997BFF24
:101865007A1B79A8122236A2AF920AC2AF75C7AA0F
:1018750075C755439620A20A92AF1210EE7B017AE6
:101885000079B09000DB74FFF0A3741BF0A374C063
:10189500F090009AE0FCA3E0FDA3E0FEA3E0FF903A
:1018A50000DE1208161208FE43B32053B4DF53B10D
:1018B500F743B208C28353B3FE43B401C29053B396
:1018C500FD43B402C29153B3FB43B404D29253B166
:1018D500FB43B204C282121C191222001216C9124D
:0D18E50012C71213E31215ED120D1C80EC5A
:0118F20022D3
:1021840090011A12081653B1BF53B2BF53B17F5313
:10219400B27F759850438920438780438E1053C47F
:1021A400DF90011AE0F8A3E0F9A3E0FAA3E0FB7FD3
:1021B400407E427D0F7C0012071DEF04F404F58D70
:0521C400D28ED2992229
:101C99009000C412081653B1BF53B2BF53B17F535A
:101CA900B27F75985043878053C4F843C42090008D
:101CB900C4E0F8A3E0F9A3E0FAA3E0FB7F407E4289
:101CC9007D0F7C0012071DC374FF9FFF74FF9EFEEA
:101CD900E49DFDE49CFC78081207CE8FC69000C4F1
:101CE900E0F8A3E0F9A3E0FAA3E0FB7F407E427DA0
:101CF9000F7C0012071DC374FF9FFF74FF9EFEE453
:0F1D09009DFDE49CFCEFE48FC543C408D29922F2
:0D22C5003098FD90013DE599F0C298E0FFD2
:0122D20022E9
:0E22D3009000E5EFF0C299E0F5993099FD22F8
:101D180090011E12081653B1FB53B2FB53B3BF53C5
:101D2800B4BF75F85075C40853C4DF90011EE0F8BD
:101D3800A3E0F9A3E0FAA3E0FB7F407E427D0F7C9D
:101D48000012071DC374FF9FFF74FF9EFEE49DFDF4
:101D5800E49CFC78081207CE8FC690011EE0F8A319
:101D6800E0F9A3E0FAA3E0FB7F407E427D0F7C0010
:101D780012071DC374FF9FFF74FF9EFEE49DFDE4E0
:0A1D88009CFCEFE48FC543C4082261
:0D22E10030F8FD90013EE59AF0C2F8E0FFF4
:0122EE0022CD
:0E22EF0090013FEFF0C2F9E0F59A30F9FD22C0
:101F7F00900122120816538EF7438901D28CE4FF89
:101F8F00FEFDFC900122E0F8A3E0F9A3E0FAA3E044
:101F9F00FBC31207BD6033758A7E758CFF308DFDD4
:101FAF00C28D900122E0FCA3E0FDA3E0FEA3E0FFC1
:101FBF0074FFEF24FFFFEE34FFFEED34FFFDEC3432
:0D1FCF00FFFC90012212081680B4C28C2283
:101FDC00900126120816538EF7438901D28CE4FF28
:101FEC00FEFDFC900126E0F8A3E0F9A3E0FAA3E0E3
:101FFC00FBC31207BD6033758AEA758CCB308DFD3F
:10200C00C28D900126E0FCA3E0FDA3E0FEA3E0FF5F
:10201C0074FFEF24FFFFEE34FFFEED34FFFDEC34D4
:0D202C00FFFC90012612081680B4C28C2221
:102039009000E0120816538EF7438901D28CE4FF11
:10204900FEFDFC9000E0E0F8A3E0F9A3E0FAA3E0CC
:10205900FBC31207BD6033758ACA758CFA308DFDD2
:10206900C28D9000E0E0FCA3E0FDA3E0FEA3E0FF49
:1020790074FFEF24FFFFEE34FFFEED34FFFDEC3477
:0D208900FFFC9000E012081680B4C28C220B
:1020960090012A120816538EEF438910D28EE4FF60
:1020A600FEFDFC90012AE0F8A3E0F9A3E0FAA3E024
:1020B600FBC31207BD6033758BEA758DCB308FFD80
:1020C600C28F90012AE0FCA3E0FDA3E0FEA3E0FF9F
:1020D60074FFEF24FFFFEE34FFFEED34FFFDEC341A
:0D20E600FFFC90012A12081680B4C28E2261
:101E030090012E12081653C9BF53C9DF43C910D21C
:101E1300CAE4FFFEFDFC90012EE0F8A3E0F9A3E085
:101E2300FAA3E0FBC31207BD603375CC3075CDF860
:101E330030CFFDC2CF90012EE0FCA3E0FDA3E0FE76
:101E4300A3E0FF74FFEF24FFFFEE34FFFEED34FF4A
:101E5300FDEC34FFFC90012E12081680B4C2CA2296
:101E630090013212081675C40743C408E4FFFEFD4F
:101E7300FC900132E0F8A3E0F9A3E0FAA3E0FBC38E
:101E83001207BD603675C52C75C6CFE5C430E4FBBB
:101E930053C4EF900132E0FCA3E0FDA3E0FEA3E016
:101EA300FF74FFEF24FFFFEE34FFFEED34FFFDEC84
:0F1EB30034FFFC90013212081680B153C4F7229D
:101EC20090013612081675C40743C408E4FFFEFDEC
:101ED200FC900136E0F8A3E0F9A3E0FAA3E0FBC32B
:101EE2001207BD603675C5D875C6FFE5C430E4FB80
:101EF20053C4EF900136E0FCA3E0FDA3E0FEA3E0B3
:101F0200FF74FFEF24FFFFEE34FFFEED34FFFDEC24
:0F1F120034FFFC90013612081680B153C4F72239
:030000000218F3F0
:1018F30075C7AA75C75575FD5A75C7AA75C75575B6
:10190300FDA5787FE4F6D8FD9000007FFF7E03E419
:0C191300F0A3DFFCDEFA75812102195AF6
:10006E000203B6E86480F8E933E83360110460F007
:10007E00ED33EC337009E8FCE9FDEAFEEBFF2204F8
:10008E0060DED3EB9FEA9EE99DE8C2E78CF0C2F7F3
:10009E0095F0400CE8CCF8E9CDF9EACEFAEBCFFBBF
:1000AE0012038185D0F05804700320D5B3E8047094
:1000BE00075002B2D50203C092D5EC0460F7E4CC2F
:1000CE00C0E0C398F8603B94186008400DD0E0FB88
:1000DE00020398E4FBFAC9FC8028E830E406E4C980
:1000EE00FBE4CAFCE830E305E4C9CACBFCE85407DC
:1000FE006010F8C3E913F9EA13FAEB13FBEC13FCE7
:10010E00D8F130F52FC3E49CFCEF9BFFEE9AFEED89
:10011E0099FDD0E0FBEF4E4D4C701222DB03020333
:10012E00BDEC2CFCEF33FFEE33FEED33FDED30E78F
:10013E00EB020398EF2BFFEE3AFEED39FDD0E0FB1C
:10014E0050130BBB00030203C0ED13FDEE13FEEFC5
:08015E0013FFEC13FC020398EF
:10016600EC4D6011E8497017ED33EC3304600DE493
:10017600FCFFFEFD22E933E8330470F80203B612F1
:10018600038158046009E4CC2481500628500902F2
:1001960003C02840030203BDC0E0EB4A7044B980A7
:1001A60006D0E0FB0203ACEF4E701CBD8008EBFFEF
:1001B600EAFEE9FD80EBE98DF0A4FEE5F002024FD0
:1001C600E9CDF9EAFEEBFFEF89F0A4FCE5F0CE8974
:1001D600F0A42EFFE435F0CD89F0A42DFEE435F031
:1001E6008067EF4E7005BD80D780C3EF8BF0A4AC5F
:1001F600F0EE8BF0A42CFCE435F0F8EF8AF0A42C9A
:10020600E5F038FCE433CB8DF0A42CFCE5F03BF8AC
:10021600EE8AF0A42CFCE5F038F8E433CF89F0A49C
:100226002CFCE5F038CF3400CE89F0A42FFFE5F0A2
:100236003EFEE433C98DF0A42EFEE5F039CD8AF0FA
:10024600A42FFFE5F03EFEE43DFD33D0E0FB500772
:100256000BBB000F0203C0EC2CFCEF33FFEE33FEAA
:06026600ED33FD020398D8
:10026C000203C0EC5D046005E8590470030203B698
:10027C00120381580460F6EC4860F2EC7004FDFE49
:10028C00FF22C860DB2481C85009C3986002500665
:10029C000203BD9850CAF582E9294B4A7005AB821E
:1002AC000203AC75F0007C1A7880C3EF9BEE9AEDDC
:1002BC0099400DC3EF9BFFEE9AFEED99FDE842F0DD
:1002CC00DC23ACF0D0E0FFD0E0FED0E0FDAB822030
:1002DC00E7101BEB60BAEC2CFCEF33FFEE33FEEDBA
:1002EC0033FD020398E803F830E705C0F075F00021
:1002FC00EF2FFFEE33FEED33FD40B830E7C280AA9E
:10030C0075F020800E75F010800575F0087D007E6C
:10031C00007F003392D530D5031207AFEC33401079
:10032C00EF33FFEE33FEED33FDEC33FCD5F0ED2275
:0E033C00E5F0247EA2D513CC92E7CDCEFF22B1
:10034A00EDD2E7CD33EC3392D524814006E4FFFEAB
:10035A00FDFC22FCE4CFCECDCC24E0501174FF800A
:10036A00EDC3CC13CCCD13CDCE13CECF13CF0470A7
:07037A00F030D5DE0207AFF1
:10089900E50824DBF582E43400F583E005082290BD
:1008A90000D83007039000DBE475F0011208530209
:1008B90006732000E97F2ED2008018EF540F249090
:1008C900D43440D4FF30040BEF24BFB41A005003D2
:1008D9002461FFE50960021509050CE50C700205A4
:1008E9000B30070E9000D8E475F001120853EF029F
:1008F90006B902229E7403D2078003E4C207F508F1
:100909009000D812086AE4F509F50BF50CE50960C1
:10091900077F201208DC80F5750AFFC201C200C2F8
:1009290002C203C205C206C2081208A8FF700D3030
:1009390007057F001208EDAF0CAE0B22B4255FC28C
:10094900D5C2041208A8FF24D0B40A00501A75F0C1
:100959000A780930D50508B6FF0106C6A426F6208F
:10096900D5047002D20380D924CFB41A00EF500401
:10097900C2E5D204020BDFD20180C6D20080C0D208
:100989000280BCD2D580BAD20580B47F201208DC9F
:100999002002077401B5090040F1120899FF1208F5
:1009A900DC020916D208D2068095120899FB1208B2
:1009B90099FA120899F94A4B700679DD7A0C7BFF8E
:1009C90020022EE509602A7E008E827583001206B8
:1009D9008C60060EEE650A70F0C2D5EBC0E0EAC085
:1009E900E0E9C0E0EE120C40D0E0F9D0E0FAD0E046
:1009F900FB120673FF60AAEBC0E0EAC0E0E9C0E0C1
:100A09001208DCD0E02401F9D0E03400FAD0E0FB90
:100A1900E50A0460DCD50AD98087D20280A2120CCB
:100A29002260F7E50A7001041203CBA90A600DE5FB
:100A39000A600914F50A120CCAEF60F3EA30E702FA
:100A4900F404C3995079EAF4250A0430E701E4046F
:100A5900F50A800D120C2260C1EA050A250A120363
:100A6900CBEA900107F030E701E4250A04D50A042E
:100A790020050114120C40E4C0E0120CCA900107D1
:100A8900E0601320E70714F01208C4802204F0D0B4
:100A9900E014C0E07F001208C4E50A60071208BB31
:100AA900150A800B3005031208BBD0E0020916D0E5
:100AB900E00480C4120C22609EE50A041203CB9064
:100AC9000107EAF0E50A2005026001042404120C7A
:010AD90040DC
:100ADA0074FF04C0E0120CCA1208C4E50A20050219
:100AEA0060031208BBD0E0B50AE87F451208CE9031
:100AFA000107E07F2B30E7047F2DF404C0E01208E1
:100B0A00DCD0E075F00A84C0F01208C5D0E0120803
:100B1A00C5020916791080027908C206C20880083F
:100B2A00D2D5790A8004790AC2D5E50A047002F599
:100B3A000AE4FAFDFEFF120899FC7B082001131251
:100B4A000899FD7B1030000A120899FE120899FFD5
:100B5A007B20EC3382D592D55013C3E43000069F34
:100B6A00FFE49EFEE42001039DFDE49CFCE4CBF837
:100B7A00C201EC700CCFCECDCCE824F8F870F3802B
:100B8A0017C3EF33FFEE33FEED33FDEC33FCEB33EB
:100B9A00FB994002FB0FD8E9EB300105F8D0E0C41D
:100BAA0048B201C0E00AEC4D4E4F78207B0070C27B
:100BBA00EAB50A0040BCC0E0120C42D0F0D0E020F6
:100BCA000104C4C0E0C4B201C0F01208C5D0F0D517
:100BDA00F0EB02091612087309B3530B1E58098465
:100BEA004C0980420B224F0B2A440B2A490999438C
:100BFA000B30550A5D460ABD450A27470CFD5009C8
:100C0A00882D098C2E09AF2B09902309AD200CE6FB
:100C1A002A094848000009A7E50AB4FF03750A062D
:100C2A00120899FC120899FD120899FE120899FFF8
:100C3A00900100020408790AA2D52003143005099C
:100C4A00B910020404B9080104A2D5200602500111
:100C5A00042002689202B509005034C0E07F2030B7
:100C6A0003197F30A20272067205500F120C99C244
:100C7A0002C206C205C2087F30800F300503E9C0F0
:100C8A00E01208DC300503D0E0F9D0E0B509CC3039
:100C9A0005177F30B9100C1208DC7F583004077F23
:100CAA00788003B908031208DC3002057F2D020898
:100CBA00DC7F202008F87F2B2006F322920280CFC7
:100CCA007F00B40700500B2400F582E43401F58359
:100CDA00E0FF22286E756C6C2900D2011208993047
:100CEA0001F8C201780930D50108F60209482D50E9
:100CFA004349581208992403B405004001E4900CB2
:100D0A00F8931208CD743A1208CDD2037509040279
:020D1A000B1EAE
:10038100E9D2E7C933E833F892D5EDD2E7CD33ECC2
:0703910033FC5002B2D5223B
:10039800EC30E7100FBF000C0EBE00080DBD0004C6
:1003A8000BEB6014A2D5EB13FCED92E7FD2274FF72
:1003B800FCFDFEFF22E480F8A2D574FF13FC7D80CB
:0303C800E480EFDF
:1003CB00F920E73624F950037907E4F42402FBE51E
:1003DB0082158270021583DBF6E024FB501BE9606B
:1003EB0014E4F0E582158270021583E004F0B40A80
:0D03FB0008E4F0D9EE7401F00A22C2D52208
:10040800ED33EC3392D5FA602AB4FF33EDC2E77BC3
:10041800FF60067A04792DE4227A04793620D5041F
:100428007A047931224E614E002B494E46002D49FF
:100438004E4600E47A08F0A3DAFC7B00740722C079
:1004480083C082ECC0E0EDC0E0EEC0E0EFC0E0EABF
:1004580075F010A4CAABF075F04DA42BFBE435F091
:10046800FCEA2410FAEB34C5FBEC34D9FCEDC2E706
:10047800FF75F056A4F42411C5F0F434C58FF0A428
:100488002AE5F03BE43CF020E71412053DD0E0FFFC
:10049800D0E0FED0E0FDD0E0FC12026F8014F4043E
:1004A80012053DD0E0FFD0E0FED0E0FDD0E0FC1228
:1004B8000166D082D083E0FAEDD2E7CD33EC332465
:1004C80082FBE4C3CF33CFCE33CECD33CD33DBF392
:1004D8007B0775F00A846004F0A31B0AE5F0F0A31B
:1004E8008FF0740AA4FFACF08EF0740AA42CFEAC52
:1004F800F050010C8DF0740AA42CFDE435F0F0A343
:05050800DBDE74072298
:10050D003F8000004120000042C80000447A0000F6
:10051D00461C400047C35000497424004B18968078
:10052D004CBEBC205A0E1BCA6753C21C749DC5AE6F
:10053D00FB60065407601C232312056BEB543860D7
:10054D0009120557120566120166ECF8EDF9EEFA7F
:10055D00EFCB22EB12056680F1543803241C900575
:10056D000DFE93FC0EEE93FD0EEE930ECE93FF2239
:10191F00021845E493A3F8E493A34003F68001F281
:10192F0008DFF48029E493A3F85407240CC8C333C9
:10193F00C4540F4420C8834004F456800146F6DF98
:10194F00E4800B01020408102040809014ECE47E28
:10195F00019360BCA3FF543F30E509541FFEE4938D
:10196F00A360010ECF54C025E060A840B8E493A354
:10197F00FAE493A3F8E493A3C8C582C8CAC583CA7F
:10198F00F0A3C8C582C8CAC583CADFE9DEE780BE37
:0115EC0000FE
:10057D00E709F608DFFA8046E709F208DFFA803E60
:10058D0088828C83E709F0A3DFFA8032E309F6084D
:10059D00DFFA8078E309F208DFFA807088828C83B5
:1005AD00E309F0A3DFFA806489828A83E0A3F60869
:1005BD00DFFA805889828A83E0A3F208DFFA804C43
:1005CD0080D280FA80C680D4806980F2803380101A
:1005DD0080A680EA809A80A880DA80E280CA803383
:1005ED0089828A83ECFAE493A3C8C582C8CCC583FB
:1005FD00CCF0A3C8C582C8CCC583CCDFE9DEE780CB
:10060D000D89828A83E493A3F608DFF9ECFAA9F049
:10061D00EDFB2289828A83ECFAE0A3C8C582C8CC9F
:10062D00C583CCF0A3C8C582C8CCC583CCDFEADEB8
:10063D00E880DB89828A83E493A3F208DFF980CC1A
:10064D0088F0EF60010E4E60C388F0ED2402B40413
:10065D000050B9F582EB2402B4040050AF232345BA
:06066D0082239005CD730D
:10067300BB010689828A83E0225002E722BBFE0285
:09068300E32289828A83E49322B8
:10068C00BB010CE58229F582E5833AF583E0225023
:10069C0006E92582F8E622BBFE06E92582F8E2226D
:0D06AC00E58229F582E5833AF583E4932287
:1006B900BB010689828A83F0225002F722BBFE0120
:0206C900F3221A
:1006CB00A3F8E0C5F025F0F0E582158270021583E2
:0606DB00E0C838F0E8223F
:1006E10075F008758200EF2FFFEE33FECD33CDCCD0
:1006F10033CCC58233C5829BED9AEC99E582984053
:100701000CF582EE9BFEED9AFDEC99FC0FD5F0D62F
:10071100E4CEFBE4CDFAE4CCF9A88222B800C1B959
:100721000059BA002DEC8BF084CFCECDFCE5F0CB97
:10073100F97818EF2FFFEE33FEED33FDEC33FCEBD0
:1007410033FB10D703994004EB99FB0FD8E5E4F98B
:10075100FA227818EF2FFFEE33FEED33FDEC33FC78
:10076100C933C910D7059BE99A4007EC9BFCE99A6C
:10077100F90FD8E0E4C9FAE4CCFB2275F010EF2FB1
:10078100FFEE33FEED33FDCC33CCC833C810D707B1
:100791009BEC9AE899400AED9BFDEC9AFCE899F8EC
:0E07A1000FD5F0DAE4CDFBE4CCFAE4C8F9227F
:0E07AF00C3E49FFFE49EFEE49DFDE49CFC225B
:1007BD00EB9FF5F0EA9E42F0E99D42F0E89C45F092
:0107CD002209
:1007CE00E8600FECC313FCED13FDEE13FEEF13FF09
:0307DE00D8F1222D
:1007E1007401FF3395E0FEFDFCA3A3A3E0CF2FF03E
:1007F100E582158270021583E0CE3EF0E582158216
:1008010070021583E0CD3DF0E582158270021583FB
:05081100E0CC3CF022E8
:0C081600ECF0A3EDF0A3EEF0A3EFF02255
:10082200A8828583F0D083D0821208391208391247
:100832000839120839E473E493A3C583C5F0C5836C
:10084200C8C582C8F0A3C583C5F0C583C8C582C820
:010852002283
:10085300F8E0FBA3A3E0F925F0F0E582158270022E
:070863001583E0FA38F022D2
:09086A00EBF0A3EAF0A3E9F0228F
:10087300D083D082F8E4937012740193700DA3A314
:1008830093F8740193F5828883E473740293686028
:06089300EFA3A3A380DF28
:10229E00EFB40A07740D1222A9740A309811A89986
:1022AE00B8130CC2983098FDA899C298B811F630A0
:0722BE0099FDC299F5992278
:00000001FF
