:082ACE003099FDC2998F992295
:1013B10057522053656E642053544177272065723C
:1013C100726F720D0A0052442053656E64205354AB
:1013D100415227206572726F720D0A004C31203D17
:1013E1002025750D0A006E657731203D2025750D8C
:1013F1000A004C312C61313D25752C25750D0A00F3
:101401006576312C7072313D2562782C2562780D1C
:101411000A004C32203D2025750D0A006E65773299
:10142100203D2025750D0A004C322C61323D257579
:101431002C25750D0A006576322C7072323D2562BD
:10144100782C2562780D0A0073746172742E2E2E29
:101451002E2E2E2E2E2E2E2E2E2E2E2E2E0D0A001E
:1014610062616E6420766F6C203D2025362E3266D7
:101471000D0A0073656E736F723120696E69742095
:101481006572720D0A0073656E736F723220696E38
:101491006974206572720D0A000D0A006164633A75
:1014A1002025750D0A0042414E443A2025752C2015
:1014B100696164633A2025750D0A006E6F206B65C2
:1014C100790D0A006E6F206B6579320D0A00726921
:1014D100676874206B65790D0A00646F776E206B05
:1014E10065790D0A006C656674206B65790D0A00DB
:1014F10063656E746572206B65790D0A00757020E5
:101501006B65790D0A00000000000000000000007A
:1015110000000000000000000000000000000000CA
:1015210000000000000000000000000000000000BA
:1015310000000000000000000000000000000000AA
:10154100000000000000000000000000000000009A
:10155100000000000000000000000000000000008A
:10156100000000000000000000000000000000007A
:10157100000000000000000000000000000000006A
:10158100000000000000000000000000000000005A
:10159100000000000000000000000000000000004A
:1015A100000000000000000000000000000000003A
:1015B100000000000000000000000000000000002A
:0E15C10000000000000000000000000000001C
:1017A8004101B00042016E000042018E000042017A
:1017B80084000042019000004201CF00004201BCB9
:1017C800000042018800004200DE00004201B10032
:1017D800004401C4000000004200B400004201BE01
:1017E800000042018A00004200E000004201B3000C
:1017F800004401C8000000005400E200000000009E
:10180800000000000000000000000000000000547C
:10181800010A0000000000000000000000000000B5
:101828000000000000005401320000000000000029
:101838000000000000000000000000000054015AF1
:101848000000000000000000000000000000000090
:10185800000000005400F600000000000000000036
:10186800000000000000000000000054011E0000FD
:101878000000000000000000000000000000000060
:1018880000005401460000000000000000000000B5
:10189800000000000000000000540170000000007B
:1018A8000000000000000000000000000000000030
:1018B800420186000042019200004201CC00004231
:1018C80001BA000042018C0000410197004101CE9D
:1018D8000042019500004101B90041019400440112
:1018E800AC000000004400B0000000004401B50056
:1018F8000000004100810041008200440083000094
:10190800000042008700005000890000000000002D
:1019180000000000000000000000410099004400A1
:101928009A0000000042009E00005000A000000045
:0D19380000000000000000000000000000A2
:1028E60090022BEBF0A3EAF0A3E9F090022BE0FBB9
:1028F600A3E0FAA3E0F9120623601890022BE0A3E6
:10290600E475F00112069DA9F0FA120623FF122AB9
:04291600DE80D82265
:1000030043B30843B40843B31043B410C2C6C2C0D9
:0600130075BE09D2C622F1
:102A260043B10443B20443B34043B440C2C6D2C028
:062A360075BE09D2C622A4
:102A3C00E5BD7011D209D2C4C2C330C308C2C6D21C
:062A4C00C6C2C3C2C6228F
:0E212D0090021CEFF0A3EBF0A3EAF0A3E9F0A0
:10213B00D2C5C2C330C3FDE5BD6408600DD2097BB7
:10214B00FF7A1379B11228E68063C2C575BC88C2C9
:10215B00C330C3FDE5BD64186004D209804F900203
:10216B001CE0F5BCC2C330C3FDE5BD64286004D2DE
:10217B0009803AE4FF900220E0FEEFC39E502790C7
:10218B00021DE0FBA3E0FAA3E0F98F827583001236
:10219B00063CF5BCC2C330C3FDE5BD64286004D268
:1021AB0009800A0F80CFD2C4C2C320C4FD300910EE
:1021BB00D2C4C2C320C4FD122A3CC209C2C6D2C6B5
:0121CB0022F1
:0E1CB900900226EFF0A3EBF0A3EAF0A3E9F00F
:101CC700D2C5C2C330C3FDE5BD6408600ED2097B2F
:101CD700FF7A1379C71228E6021D7E75BC88C2C534
:101CE700C2C330C3FDE5BD64186005D209021D7E7D
:101CF700900226E0F5BCC2C330C3FDE5BD64286091
:101D070004D2098072D2C5C2C330C3FDE5BD6410D9
:101D17006004D2098061C2C575BC89C2C330C3FDE6
:101D2700E5BD64406004D209804DE4FF90022AE0DB
:101D3700FEEFC39E5029D2C2C2C330C3FDE5BD64C6
:101D4700506004D2098030900227E0FBA3E0FAA399
:101D5700E0F98F82758300E5BC12067B0F80CDC248
:101D6700C2C2C330C3FDE5BD64586004D209800711
:101D7700C2C3D2C420C4FD300909122A3CC209C219
:031D8700C6D2C6FB
:011D8A002236
:1015CF00A2AF920AC2AF75C7AA75C755439F01A2B2
:1015DF000A92AF75AF0475A60DE4F5A7A2AF920AF4
:1015EF00C2AF75C7AA75C75543A401A20A92AF909F
:1015FF000213E5AEF0E054F0A3F0E0648060030264
:10160F001697900213E0540FF075A60CE4F5A7A2FD
:10161F00AF920AC2AF75C7AA75C75543A401A20AF4
:10162F0092AF900212E5AEF0E075F010A4FFA3E0C8
:10163F007C002FFDEC35F0FCE41202C19002151274
:10164F0007B3E4FFFE7D407C40900215E0F8A3E075
:10165F00F9A3E0FAA3E0FB120116E4FBFA79807814
:10166F004012021F9002191207B3E4FFFE7D047CA3
:10167F00C2900219E0F8A3E0F9A3E0FAA3E0FB128D
:10168F0000259001C01207B3900214E07068900219
:10169F0013E0540FF075A60CE4F5A7A2AF920AC29F
:1016AF00AF75C7AA75C75543A401A20A92AF90029E
:1016BF0012E5AEF0E075F010A4FFA3E07C002FFD63
:1016CF00EC35F0FCE41202C19002151207B3E4FFEF
:1016DF00FE7D407C40900215E0F8A3E0F9A3E0FA0C
:1016EF00A3E0FB120116E4FBFA7980784012021F87
:1016FF009001C01207B3900214E0649060030217C8
:10170F009475A60EF5A7A2AF920AC2AF75C7AA75B8
:10171F00C75543A401A20A92AF900212E5AEF0752D
:10172F00A60FE4F5A7A2AF920AC2AF75C7AA75C7F5
:10173F005543A401A20A92AFA3E5AEF0E0540FF017
:10174F00900212E075F010A4FFA3E07C002FFDECD7
:10175F0035F0FCE41202C19002151207B3E4FFFE4C
:10176F007D407C40900215E0F8A3E0F9A3E0FAA3D6
:10177F00E0FB120116E4FBFA7980784012021F9009
:10178F0001C01207B3A2AF920AC2AF75C7AA75C73D
:08179F0055539FFEA20A92AF10
:0117A700221F
:05194A009001D1EFF057
:10194F007BFF7A15790778D27C017D017E007F14A9
:10195F001205FDE4FBFA9001E61207BF000000003C
:10196F0043E80853E8F843E101759502C2EFD2EE60
:10197F0030EFFDAFC3900186E4F0A3EFF0E0C4F8C1
:10198F00540FC868F0900186E0C454F048F0E5C2E7
:10199F00540FFFE0F0A3E04FF0E4F59553E1FE9014
:1019AF0001D1E06003021A9C53E8F043E80443B10D
:1019BF002053B2DFE4F5F643F61043E101C2EFD254
:1019CF00EE30EFFDAFC37A00AB07EBC4F8540FC88E
:1019DF0068FBEAC454F048FAE5C2540FFFEAEB4F34
:1019EF00FBAE02FFFDAC06E41202C19001C0E0F8AD
:1019FF00A3E0F9A3E0FAA3E0FB120116C004C005AF
:101A0F00C006C007900186E0FCA3E0FDE41202C10E
:101A1F00A804A905AA06AB07D007D006D005D004A5
:101A2F0012021F9001E61207B39001E6E0FCA3E05B
:101A3F00FDA3E0FEA3E0FF1202FA900192EEF0A3E5
:101A4F00EFF090018CE0FEA3E0FFC3900193E09FC5
:101A5F00FF900192E09EFEEF7804CEA2E713CE1323
:101A6F00D8F8FF90018DE02FFF90018CE03E9001A0
:101A7F00CCF0A3EFF09001CCE0FFA3E090018CCF6E
:0D1A8F00F0A3EFF09001CE7401F053E1FEE2
:011A9C002227
:03001B000221CCF3
:1021CC00C0E0C0F0C083C082C0D075D000C000C0D9
:0D21DC0001C002C003C004C005C006C0075A
:1021E9009001ACE0FCA3E0FDA3E0FEA3E0FFE4FA6C
:1021F900F9F8EF2401FFEA3EFEE93DFDE83CFC90D9
:1022090001AC1207B39000B0E0FCA3E0FDA3E0FE2F
:10221900A3E0FFE4F8EF2401FFEA3EFEE93DFDE813
:102229003CFC9000B01207B3758BCA758DFA90000B
:0B22390081E0FF12194A900081E4F0E0
:10224400D007D006D005D004D003D002D001D000EE
:0B225400D0D0D082D083D0F0D0E03298
:102A520053890F438910538EEF758BCA758DFAD245
:062A6200ABD2AFD28E22C0
:081A9D00900226EEF0A3EFF029
:101AA500900082E0D394085005E004F08006900091
:101AB500827409F0900082E0D39408505990022670
:101AC500E0FFA3E0900087CFF0A3EFF0900083E064
:101AD500F8A3E0F9A3E0FAA3E0FB900226E0FEA359
:101AE500E0FFE4FCFDEB2FFFEA3EFEED39FDEC38AF
:101AF500FC9000831207B3900226E0FEA3E0FF905E
:101B05000082E025E02487F582E43400F583EEF0D9
:101B1500A3EFF0021BA2900226E0FEA3E0FFE4FC87
:101B2500FD900083E0F8A3E0F9A3E0FAA3E02FFF1E
:101B3500EA3EFEED39FDEC38FCC006C00790008991
:101B4500E0FEA3E0FFFBAA06E4D007D006C3EF9BA7
:101B5500FFEE9AFEED9400FDEC9400FC90008312DC
:101B650007B3900083E0FCA3E0FDA3E0FEA3E0FF44
:101B750078031207A0A3EEF0A3EFF07B017A0079BA
:101B85008B78897C007D017E007F0E1205FD900219
:101B950026E0FFA3E0900097CFF0A3EFF090008739
:051BA500E0FEA3E0FFDB
:011BAA002218
:081BAB00900226EEF0A3EFF01A
:101BB300900099E0D394085005E004F0800690006B
:101BC300997409F0900099E0D39408505990022633
:101BD300E0FFA3E090009ECFF0A3EFF090009AE027
:101BE300F8A3E0F9A3E0FAA3E0FB900226E0FEA34A
:101BF300E0FFE4FCFDEB2FFFEA3EFEED39FDEC38A0
:101C0300FC90009A1207B3900226E0FEA3E0FF9037
:101C13000099E025E0249EF582E43400F583EEF09C
:101C2300A3EFF0021CB0900226E0FEA3E0FFE4FC69
:101C3300FD90009AE0F8A3E0F9A3E0FAA3E02FFFF8
:101C4300EA3EFEED39FDEC38FCC006C0079000A06B
:101C5300E0FEA3E0FFFBAA06E4D007D006C3EF9B98
:101C6300FFEE9AFEED9400FDEC9400FC90009A12B6
:101C730007B390009AE0FCA3E0FDA3E0FEA3E0FF1E
:101C830078031207A0A3EEF0A3EFF07B017A0079AB
:101C9300A278A07C007D017E007F0E1205FD9002DC
:101CA30026E0FFA3E09000AECFF0A3EFF090009EFC
:051CB300E0FEA3E0FFCC
:011CB8002209
:10225F007BFF7A15791B78127C027D017E007F0A45
:10226F001205FD7BFF7A157925781C7C027D017E96
:10227F00007F0A1205FDE490021CF0A3F07B017AA7
:10228F0002791C90022A04F07F31121CB97B017A6B
:10229F0002791D90022A7401F07F30121CB990024E
:1022AF001CE0FEA3E07C002400FFEC3E9001CFF089
:1022BF00A3EFF07B017A0079E290022974FFF0A37B
:1022CF007413F0A374DDF09001CFE0FFA3E0900250
:0922DF002CCFF0A3EFF0120F93D5
:0122E80022D3
:101D8B007BFF7A15792F78127C027D017E007F0A0A
:101D9B001205FD7BFF7A157939781C7C027D017E5B
:101DAB00007F0A1205FDE490021CF0A3F07B017A80
:101DBB0002791C90022A04F07F21121CB97B017A54
:101DCB0002791D90022A7401F07F20121CB9900237
:101DDB001CE0FEA3E07C002400FFEC3E9001BCF075
:101DEB00A3EFF07B017A01790A90022974FFF0A32B
:101DFB007413F0A374E7F09001BCE0FFA3E0900232
:101E0B002CCFF0A3EFF0120F939001BCE0FEA3E0F8
:101E1B00FF121A9D9000DEEEF0A3EFF07B017A012A
:101E2B00793290022974FFF0A37413F0A374F3F0CA
:101E3B009001CFE0FFA3E090022CCFF0A3EFF09046
:101E4B0000DEE0FFA3E090022ECFF0A3EFF0120F25
:011E5B0093F3
:011E5C002263
:10246C007BFF7A15794378127C027D017E007F0A0E
:10247C001205FD7BFF7A15794D781C7C027D017E5F
:10248C00007F0A1205FDE490021CF0A3F07B017A98
:10249C0002791C90022A04F07F11121CB97B017A7C
:1024AC0002791D90022A7401F07F12121CB97B0173
:1024BC007A01795A90022974FFF0A37414F0A37472
:1024CC0001F090021CE090022CF090021DE09002B2
:0524DC002DF0120F932A
:0124E10022D8
:1022E9007BFF7A15795778127C027D017E007F0A7F
:1022F9001205FD7BFF7A157961781C7C027D017ED0
:10230900007F0A1205FDE490021CF0A3F07B017A1C
:1023190002791C90022A04F07F31121CB97B017AE0
:1023290002791D90022A7401F07F30121CB99002C3
:102339001CE0FEA3E07C002400FFEC3E9000B4F01A
:10234900A3EFF07B017A0079F690022974FFF0A3DC
:102359007414F0A37413F09000B4E0FFA3E09002AA
:092369002CCFF0A3EFF0120F934A
:012372002248
:101E5D007BFF7A15796B78127C027D017E007F0AFB
:101E6D001205FD7BFF7A157975781C7C027D017E4C
:101E7D00007F0A1205FDE490021CF0A3F07B017AAD
:101E8D0002791C90022A04F07F21121CB97B017A81
:101E9D0002791D90022A7401F07F20121CB9900264
:101EAD001CE0FEA3E07C002400FFEC3E9001BEF0A0
:101EBD00A3EFF07B017A01791E90022974FFF0A344
:101ECD007414F0A3741DF09001BEE0FFA3E0900226
:101EDD002CCFF0A3EFF0120F939001BEE0FEA3E024
:101EED00FF121BAB9000E0EEF0A3EFF07B017A0147
:101EFD00794690022974FFF0A37414F0A37429F0AD
:101F0D009000B4E0FFA3E090022CCFF0A3EFF0908F
:101F1D0000E0E0FFA3E090022ECFF0A3EFF0120F50
:011F2D009320
:011F2E002290
:1024E2007BFF7A15797F78127C027D017E007F0A5C
:1024F2001205FD7BFF7A157989781C7C027D017EAD
:10250200007F0A1205FDE490021CF0A3F07B017A21
:1025120002791C90022A04F07F11121CB97B017A05
:1025220002791D90022A7401F07F12121CB97B01FC
:102532007A01797090022974FFF0A37414F0A374E5
:1025420037F090021CE090022CF090021DE0900205
:052552002DF0120F93B3
:012557002261
:1025CB00A2AF920AC2AF75C7AA75C755439F01A2A6
:1025DB000A92AFA2AF920AC2AF75C7AA75C755438D
:1025EB00A504A20A92AF75A604E4F5A775AE0F7504
:1025FB00AFE1A2AF920AC2AF75C7AA75C75543A484
:10260B0001A20A92AFE59F20E6FBA2AF920AC2AFEE
:10261B0075C7AA75C75553A5FBA20A92AFA2AF9275
:10262B000AC2AF75C7AA75C755539FFEA20A92AFD0
:01263B00227C
:10287400C291C280C290C292C29553B3FD43B402C6
:1028840053B1FE43B20153B3FE43B40153B3DF4328
:10289400B42053B3FB43B404C284C2B053B1EF4376
:0928A400B21053ACFE43AD012259
:101FDB007BFF7A15799378127C027D017E007F0A54
:101FEB001205FDE4900212F07B017A027912900245
:101FFB002A04F07F43121CB9900212E054FCF07BD0
:10200B00017A0279129002207401F07F4312212D84
:10201B007F0A7E007D007C001225589002127416F8
:10202B00F07B017A0279129002207401F07F60122A
:10203B00212D7F0A7E007D007C00122558E4900242
:10204B0012F07B017A02791290022A04F07F80123F
:10205B001CB9900212E054FCF0E004F07B017A0210
:10206B0079129002207401F07F8012212D7F0A7E5D
:08207B00007D007C00122558D5
:01208300223A
:102084007BFF7A15799D78127C027D017E007F0AA0
:102094001205FDE4900212F07B017A02791290029B
:1020A4002A04F07F43121CB9900212E054FCF07B26
:1020B400017A0279129002207401F07F4312212DDB
:1020C4007F0A7E007D007C0012255890021274164F
:1020D400F07B017A0279129002207401F07F601281
:1020E400212D7F0A7E007D007C00122558E4900299
:1020F40012F07B017A02791290022A04F07F801296
:102104001CB9900212E054FCF0E004F07B017A0266
:1021140079129002207401F07F8012212D7F0A7EB3
:08212400007D007C001225582B
:01212C002290
:100836007BFF7A1579A778EA7C017D017E007F0A25
:100846001205FD7BFF7A1579B178F47C017D017E76
:10085600007F0A1205FD7BFF7A1579BB78FE7C01C5
:100866007D017E007F141205FD1228747F007EC272
:100876007D017C00122373D299D2AF7BFF7A147963
:10088600491228E67F0A7E007D007C001225581258
:1008960015CF7B017A0179FE90022974FFF0A374CB
:1008A60014F0A37461F09001C0E0FCA3E0FDA3E0A6
:1008B600FEA3E0FF90022C1207B3120F937FE87E8F
:1008C600037D007C001225589001B07401F01200DF
:1008D60003121FDB12225F121D8BC39001D0E0941E
:1008E600509001CFE094004028A3E024F1FE90014F
:1008F600CFE034FF90016EF0A3CEF09001D0E0245B
:10090600D3FE9001CFE034FF90018EF0A3CEF080AD
:1009160025E490016EF0A3F090018EF0A3F0900113
:10092600B0F07BFF7A1479741228E67F0A7E007D88
:10093600007C001225587B017A0179321228E67F65
:100946000A7E007D007C00122558122A2612208479
:100956001222E9121E5DC39000B5E094509000B4D7
:10096600E094004028A3E024F1FE9000B4E034FFB8
:10097600900184F0A3CEF09000B5E024D3FE900061
:10098600B4E034FF900190F0A3CEF08025E490010E
:1009960084F0A3F0900190F0A3F09001B0F07BFFFB
:1009A6007A1479871228E67F0A7E007D007C001281
:1009B60025587B017A0179461228E67F0A7E007D5A
:1009C600007C001225587BFF7A14799A1228E67F5C
:1009D600027E007D007C00122558122A521225CB79
:1009E600A2AF920AC2AF75C7AA75C75543AA80A21D
:1009F6000A92AFA2AF920AC2AF75C7AA75C755438E
:100A0600AA40A20A92AFA2AF920AC2AF75C7AA7550
:100A1600C75543AA40A20A92AF9001CEE064016096
:100A260003020DF5F0900192E0FFA3E09001BACF2A
:100A3600F0A3EFF0900186E0FCA3E0FDE41202C112
:100A4600E4FBFA79B5784412021FC004C005C0065B
:100A5600C0079001BAE0FCA3E0FDE41202C1D00396
:100A6600D002D001D0001201161202FA900195EEC2
:100A7600F0A3EFF07B017A0079B690022974FFF0BB
:100A8600A37414F0A3749DF0900195E0FFA3E09089
:100A9600022CCFF0A3EFF0120F937B017A0079CAF4
:100AA60090022974FFF0A37414F0A374A7F09001C8
:100AB60086E0FFA3E090022CCFF0A3EFF09001BAFE
:100AC600E0FFA3E090022ECFF0A3EFF0120F93D336
:100AD600900196E0942C900195E0940150477F0A8E
:100AE6007E007D007C00122558D3900196E0942C60
:100AF600900195E094014003020DF57B017A01799E
:100B06009890022974FFF0A37414F0A374BCF01239
:100B16000F939001B97401F0C291C280C290C29243
:100B2600C295020DF5C3900196E094B8900195E048
:100B3600940B40477F0A7E007D007C00122558C337
:100B4600900196E094B8900195E0940B5003020D45
:100B5600F57B017A01799890022974FFF0A3741449
:100B6600F0A374C5F0120F939001B97401F0C2910D
:100B7600C280C290C292C295020DF5C3900196E062
:100B860094C4900195E0940940717F0A7E007D002F
:100B96007C00122558C3900196E094C4900195E01C
:100BA60094095003020DF52092287B017A0079B64C
:100BB6001228E67F027E007D007C001225587BFF0E
:100BC6007A1479CF1228E67F027E007D007C00121F
:100BD60025587B017A01799890022974FFF0A37455
:100BE60014F0A374CFF0120F93E49001B9F0C29100
:100BF600C280C290C295D292020DF5C3900196E0D2
:100C06009434900195E0940840717F0A7E007D003F
:100C16007C00122558C3900196E09434900195E02B
:100C260094085003020DF52090287B017A0079B6CE
:100C36001228E67F027E007D007C001225587BFF8D
:100C46007A1479DB1228E67F027E007D007C001292
:100C560025587B017A01799890022974FFF0A374D4
:100C660014F0A374DBF0120F93E49001B9F0C29173
:100C7600C280D290C292C295020DF5C3900196E051
:100C860094A4900195E0940640717F0A7E007D0051
:100C96007C00122558C3900196E094A4900195E03B
:100CA60094065003020DF52091287B017A0079B64F
:100CB6001228E67F027E007D007C001225587BFF0D
:100CC6007A1479E61228E67F027E007D007C001207
:100CD60025587B017A01799890022974FFF0A37454
:100CE60014F0A374E6F0120F93E49001B9F0D291D8
:100CF600C280C290C292C295020DF5C3900196E0E1
:100D0600944C900195E0940440707F0A7E007D002B
:100D16007C00122558C3900196E0944C900195E012
:100D260094045003020DF52080287B017A0079B6E1
:100D36001228E67F027E007D007C001225587BFF8C
:100D46007A1479F11228E67F027E007D007C00127B
:100D560025587B017A01799890022974FFF0A374D3
:100D660014F0A374F1F0120F93E49001B9F0C2915C
:100D7600D280C290C292C2958075C3900196E094CB
:100D860058900195E0940240667F0A7E007D007CC3
:100D960000122558C3900196E09458900195E0946E
:100DA60002404C2095287B017A0079B61228E67F0E
:100DB600027E007D007C001225587BFF7A1479FEA6
:100DC6001228E67F027E007D007C001225587B01FA
:100DD6007A01799890022974FFF0A37414F0A37431
:100DE600FEF0120F93C291C280C290C292D295E4D5
:100DF6007FC8FEFDFC9001ACE0F8A3E0F9A3E0FAA1
:100E0600A3E0FBC312078F40739001AC1207BF002B
:100E16000000009001B5E0FCA3E0FDA3E0FEA3E026
:100E2600FFE4FAF9F8EF2401FFEA3EFEE93DFDE8AA
:100E36003CFC9001B51207B3E47F32FEFDFC900145
:100E4600B5E0F8A3E0F9A3E0FAA3E0FBC312078F2D
:100E560040189001B51207BF0000000012000312EF
:100E6600225F122A261222E98012120003121D8B1B
:100E760012246C122A26121E5D1224E2E47FD07E12
:100E860007FDFC9000B0E0F8A3E0F9A3E0FAA3E0C8
:100E9600FBC312078F5003020A0CE47F14FEFDFC0D
:100EA6009001ACE0F8A3E0F9A3E0FAA3E0FB120797
:100EB6008F5003020A0C9000B01207BF000000001A
:100EC6007B017A0179321228E67F057E007D007C5F
:100ED600001225587B017A01795A1228E67F057E91
:100EE600007D007C001225587B017A017946122884
:100EF600E67F057E007D007C001225587B017A0185
:100F060079701228E67F057E007D007C0012255848
:100F16007BFF7A14799A1228E67F027E007D007C98
:070F260000122558020A0C1D
:010F2D0022A1
:0419450041001D0040
:0100190022C4
:102AB0000000000000000000000000000000000016
:012AC00022F3
:10294E000000000000000000000000000000000079
:10295E000000000000000000000000000000000069
:10296E000000000000000000000000000000000059
:01297E002236
:0D2AC10043B10843B20843B10243B2022200
:072AF60043B10243B20222CA
:072AFD0043B10253B2FD22B8
:102A6800122AF6D281D28312294EC28112294EC26D
:022A78008322B7
:102A7A00122AF6C283C28112294ED283D281122926
:022A8A004E22DA
:102A8C00122AF6C283C281122AB0D283122AB0C291
:022A9C00832293
:102A9E00122AF6C283D281122AB0D283122AB0C26F
:022AAE00832281
:102A0300E4FF122AFDD281120019D2831200193079
:102A1300810C0FEFD3940240F6C2837F0122C2835D
:022A23007F0032
:012A2500228E
:10291A00122AF6C283E4FEEEC394085026EF5480CE
:10292A00FDC413131354016004D2818002C28112C0
:10293A002AB0D283122AB0C283122AB0EF25E0FF4E
:03294A000E80D428
:01294D002267
:10297F00E4FEFD122AFDEEC394085015C283122AFD
:10298F00B0D283ED25E0FD3081010D1200190E80CC
:0E299F00E5EF7005122A9E8003122A8CAF0508
:0129AD002207
:1029DB00AC05AB07122A687F2612291A122A03901C
:1029EB00001DEFF0AF0312291A122A03AF041229AC
:0829FB001A122A03122A7A22A3
:0229AE00AC0774
:1029B000E4FB122A687F2612291A122A03AF041296
:1029C000291A122A03122A687F2712291A122A03A7
:0A29D000E4FF12297FAB07122A7AF8
:0129DA0022DA
:10263C009000001207B3538EF75389F0438901D2EF
:10264C008CE4FFFEFDFC900000E0F8A3E0F9A3E0B1
:10265C00FAA3E0FBC312078F6033758AF3758CFF06
:10266C00308DFDC28D900000E0FCA3E0FDA3E0FEE8
:10267C00A3E0FF74FFEF24FFFFEE34FFFEED34FF09
:10268C00FDEC34FFFC9000001207B380B4C28C2226
:1027BA009000041207B3538EF7438901D28CE4FFC9
:1027CA00FEFDFC900004E0F8A3E0F9A3E0FAA3E020
:1027DA00FBC312078F6033758A7E758CFF308DFDBF
:1027EA00C28D900004E0FCA3E0FDA3E0FEA3E0FF9D
:1027FA0074FFEF24FFFFEE34FFFEED34FFFDEC34EF
:0D280A00FFFC9000041207B380B4C28C22C2
:1025580090021C1207B3538EF7A2AF920AC2AF754E
:10256800C7AA75C75543AA40A20A92AF5389F04338
:102578008901D28CE4FFFEFDFC90021CE0F8A3E088
:10258800F9A3E0FAA3E0FBC312078F6033758ACA88
:10259800758CFA308DFDC28D90021CE0FCA3E0FD25
:1025A800A3E0FEA3E0FF74FFEF24FFFFEE34FFFE7D
:1025B800ED34FFFDEC34FFFC90021C1207B380B42D
:0325C800C28C22A0
:102817009000091207B3538EEF438910D28EE4FF5D
:10282700FEFDFC900009E0F8A3E0F9A3E0FAA3E0BD
:10283700FBC312078F6033758BEA758DCB308FFD25
:10284700C28F900009E0FCA3E0FDA3E0FEA3E0FF38
:1028570074FFEF24FFFFEE34FFFEED34FFFDEC3491
:0D286700FFFC9000091207B380B4C28E225E
:10269C0090000D1207B353C9BF53C9DF43C910D201
:1026AC00CAE4FFFEFDFC90000DE0F8A3E0F9A3E006
:1026BC00FAA3E0FBC312078F603375CC3075CDF8ED
:1026CC0030CFFDC2CF90000DE0FCA3E0FDA3E0FEF7
:1026DC00A3E0FF74FFEF24FFFFEE34FFFEED34FFA9
:1026EC00FDEC34FFFC90000D1207B380B4C2CA227B
:1026FC009000111207B375C40743C408E4FFFEFD34
:10270C00FC900011E0F8A3E0F9A3E0FAA3E0FBC30E
:10271C0012078F603675C52C75C6CFE5C430E4FB47
:10272C0053C4EF900011E0FCA3E0FDA3E0FEA3E096
:10273C00FF74FFEF24FFFFEE34FFFEED34FFFDECE2
:0F274C0034FFFC9000111207B380B153C4F72281
:10275B009000151207B375C40743C408E4FFFEFDD0
:10276B00FC900015E0F8A3E0F9A3E0FAA3E0FBC3AB
:10277B0012078F603675C5D875C6FFE5C430E4FB0C
:10278B0053C4EF900015E0FCA3E0FDA3E0FEA3E033
:10279B00FF74FFEF24FFFFEE34FFFEED34FFFDEC83
:0F27AB0034FFFC9000151207B380B153C4F7221E
:1028AD0053B1BF53B2BF53B17F53B27F75985043ED
:1028BD008920438780438E1053C4DFAB07AA06A936
:1028CD0005A8047F407E427D0F7C001206EFEF04C9
:0928DD00F404F58DD28ED299228B
:102373009002121207B353B1BF53B2BF53B17F538D
:10238300B27F75985043878053C4F843C4209002AA
:1023930012E0F8A3E0F9A3E0FAA3E0FB7F407E425A
:1023A3007D0F7C001206EFC374FF9FFF74FF9EFE38
:1023B300E49DFDE49CFC78081207A08FC6900212EE
:1023C300E0F8A3E0F9A3E0FAA3E0FB7F407E427DBF
:1023D3000F7C001206EFC374FF9FFF74FF9EFEE4A1
:0F23E3009DFDE49CFCEFE48FC543C408D2992212
:072AD6003098FDAF99C29892
:012ADD0022D6
:082ADE00C2998F993099FD2285
:1023F2009000191207B353B1FB53B2FB53B3BF534F
:10240200B4BF75F85075C40853C4DF900019E0F8E2
:10241200A3E0F9A3E0FAA3E0FB7F407E427D0F7CBC
:10242200001206EFC374FF9FFF74FF9EFEE49DFD42
:10243200E49CFC78081207A08FC6900019E0F8A36C
:10244200E0F9A3E0FAA3E0FB7F407E427D0F7C002F
:102452001206EFC374FF9FFF74FF9EFEE49DFDE42E
:0A2462009CFCEFE48FC543C4082280
:072AE60030F8FDAF9AC2F8C1
:012AED0022C6
:082AEE00C2F98F9A30F9FD22B4
:03000000021F2FAD
:101F2F0075C7AA75C75575FD5A75C7AA75C7557573
:101F3F00FDA5787FE4F6D8FD9000007FFF7E03E4D7
:0C1F4F00F0A3DFFCDEFA758180021F9613
:10001E00020366E86480F8E933E83360110460F0A7
:10002E00ED33EC337009E8FCE9FDEAFEEBFF220448
:10003E0060DED3EB9FEA9EE99DE8C2E78CF0C2F743
:10004E0095F0400CE8CCF8E9CDF9EACEFAEBCFFB0F
:10005E0012033185D0F05804700320D5B3E8047034
:10006E00075002B2D502037092D5EC0460F7E4CCCF
:10007E00C0E0C398F8603B94186008400DD0E0FBD8
:10008E00020348E4FBFAC9FC8028E830E406E4C920
:10009E00FBE4CAFCE830E305E4C9CACBFCE854072C
:1000AE006010F8C3E913F9EA13FAEB13FBEC13FC37
:1000BE00D8F130F52FC3E49CFCEF9BFFEE9AFEEDDA
:1000CE0099FDD0E0FBEF4E4D4C701222DB03020384
:1000DE006DEC2CFCEF33FFEE33FEED33FDED30E730
:1000EE00EB020348EF2BFFEE3AFEED39FDD0E0FBBD
:1000FE0050130BBB0003020370ED13FDEE13FEEF66
:08010E0013FFEC13FC0203488F
:10011600EC4D6011E8497017ED33EC3304600DE4E3
:10012600FCFFFEFD22E933E8330470F80203661291
:10013600033158046009E4CC248150062850090292
:10014600037028400302036DC0E0EB4A7044B98097
:1001560006D0E0FB02035CEF4E701CBD8008EBFF8F
:10016600EAFEE9FD80EBE98DF0A4FEE5F00201FF71
:10017600E9CDF9EAFEEBFFEF89F0A4FCE5F0CE89C4
:10018600F0A42EFFE435F0CD89F0A42DFEE435F081
:100196008067EF4E7005BD80D780C3EF8BF0A4ACAF
:1001A600F0EE8BF0A42CFCE435F0F8EF8AF0A42CEA
:1001B600E5F038FCE433CB8DF0A42CFCE5F03BF8FD
:1001C600EE8AF0A42CFCE5F038F8E433CF89F0A4ED
:1001D6002CFCE5F038CF3400CE89F0A42FFFE5F0F3
:1001E6003EFEE433C98DF0A42EFEE5F039CD8AF04B
:1001F600A42FFFE5F03EFEE43DFD33D0E0FB5007C3
:100206000BBB000F020370EC2CFCEF33FFEE33FE4A
:06021600ED33FD02034878
:10021C00020370EC5D046005E85904700302036688
:10022C00120331580460F6EC4860F2EC7004FDFEE9
:10023C00FF22C860DB2481C85009C39860025006B5
:10024C0002036D9850CAF582E9294B4A7005AB82BE
:10025C0002035C75F0007C1A7880C3EF9BEE9AED7C
:10026C0099400DC3EF9BFFEE9AFEED99FDE842F02D
:10027C00DC23ACF0D0E0FFD0E0FED0E0FDAB822080
:10028C00E7101BEB60BAEC2CFCEF33FFEE33FEED0A
:10029C0033FD020348E803F830E705C0F075F000C1
:1002AC00EF2FFFEE33FEED33FD40B830E7C280AAEE
:1002BC0075F020800E75F010800575F0087D007EBD
:1002CC00007F003392D530D503120781EC334010F8
:1002DC00EF33FFEE33FEED33FDEC33FCD5F0ED22C6
:0E02EC00E5F0247EA2D513CC92E7CDCEFF2202
:1002FA00EDD2E7CD33EC3392D524814006E4FFFEFC
:10030A00FDFC22FCE4CFCECDCC24E0501174FF805A
:10031A00EDC3CC13CCCD13CDCE13CECF13CF0470F7
:07032A00F030D5DE0207816F
:100F2E00E5082429F582E43402F583E005082290D1
:100F3E000226300703900229E475F0011207F00231
:100F4E0006232000E97F2ED2008018EF540F249044
:100F5E00D43440D4FF30040BEF24BFB41A00500336
:100F6E002461FFE50960021509050CE50C70020508
:100F7E000B30070E900226E475F0011207F0EF0217
:100F8E000669022ACE7403D2078003E4C207F5086D
:100F9E00900226120807E4F509F50BF50CE5096039
:100FAE00077F20120F7180F5750AFFC201C200C2C1
:100FBE0002C203C205C206C208120F3DFF700D30F9
:100FCE0007057F00120F82AF0CAE0B22B4255FC255
:100FDE00D5C204120F3DFF24D0B40A00501A75F08A
:100FEE000A780930D50508B6FF0106C6A426F620F4
:100FFE00D5047002D20380D924CFB41A00EF500466
:10100E00C2E5D204021274D20180C6D20080C0D2D0
:10101E000280BCD2D580BAD20580B47F20120F7167
:10102E002002077401B5090040F1120F2EFF120FB6
:10103E0071020FABD208D2068095120F2EFB120F43
:10104E002EFA120F2EF94A4B700679727A137BFF25
:10105E0020022EE509602A7E008E8275830012061C
:10106E003C60060EEE650A70F0C2D5EBC0E0EAC039
:10107E00E0E9C0E0EE1212D5D0E0F9D0E0FAD0E00F
:10108E00FB120623FF60AAEBC0E0EAC0E0E9C0E075
:10109E00120F71D0E02401F9D0E03400FAD0E0FB59
:1010AE00E50A0460DCD50AD98087D20280A212122A
:1010BE00B760F7E50A70010412037BA90A600DE51B
:1010CE000A600914F50A12135FEF60F3EA30E702C3
:1010DE00F404C3995079EAF4250A0430E701E404D4
:1010EE00F50A800D1212B760C1EA050A250A12032D
:1010FE007BEA900255F030E701E4250A04D50A0494
:10110E00200501141212D5E4C0E012135F900255AF
:10111E00E0601320E70714F0120F59802204F0D07C
:10112E00E014C0E07F00120F59E50A6007120F505D
:10113E00150A800B300503120F50D0E0020FABD012
:10114E00E00480C41212B7609EE50A0412037B907D
:10115E000255EAF0E50A2005026001042404121289
:01116E00D5AB
:10116F0074FF04C0E012135F120F59E50A20050245
:10117F006003120F50D0E0B50AE87F45120F63905D
:10118F000255E07F2B30E7047F2DF404C0E0120FEF
:10119F0071D0E075F00A84C0F0120F5AD0E0120F30
:1011AF005A020FAB791080027908C206C208800874
:1011BF00D2D5790A8004790AC2D5E50A047002F5FE
:1011CF000AE4FAFDFEFF120F2EFC7B08200113121A
:1011DF000F2EFD7B1030000A120F2EFE120F2EFF66
:1011EF007B20EC3382D592D55013C3E43000069F99
:1011FF00FFE49EFEE42001039DFDE49CFCE4CBF89C
:10120F00C201EC700CCFCECDCCE824F8F870F3808F
:10121F0017C3EF33FFEE33FEED33FDEC33FCEB334F
:10122F00FB994002FB0FD8E9EB300105F8D0E0C481
:10123F0048B201C0E00AEC4D4E4F78207B0070C2DF
:10124F00EAB50A0040BCC0E01212D7D0F0D0E020BF
:10125F000104C4C0E0C4B201C0F0120F5AD0F0D5DF
:10126F00F0EB020FAB12081010485311B3581019BE
:10127F004C10154211B74F11BF4411BF49102E43E7
:10128F0011C55510F24611524510BC47139250101C
:10129F001D2D10212E10442B102523104220137BBF
:1012AF002A0FDD480000103CE50AB4FF03750A065B
:1012BF00120F2EFC120F2EFD120F2EFE120F2EFFED
:1012CF0090024E0203B8790AA2D520031430050903
:1012DF00B910020404B9080104A2D5200602500176
:1012EF00042002689202B509005034C0E07F20301C
:1012FF0003197F30A20272067205500F12132EC20D
:10130F0002C206C205C2087F30800F300503E9C054
:10131F00E0120F71300503D0E0F9D0E0B509CC3001
:10132F0005177F30B9100C120F717F583004077FEB
:10133F00788003B90803120F713002057F2D020F59
:10134F00717F202008F87F2B2006F322920280CF96
:10135F007F00B40700500B244EF582E43402F5836E
:10136F00E0FF22286E756C6C2900D201120F2E300F
:10137F0001F8C201780930D50108F6020FDD2D50B2
:10138F00434958120F2E2403B405004001E4901373
:10139F008D93120F62743A120F62D2037509040211
:0213AF0011B378
:10033100E9D2E7C933E833F892D5EDD2E7CD33EC12
:0703410033FC5002B2D5228B
:10034800EC30E7100FBF000C0EBE00080DBD000416
:100358000BEB6014A2D5EB13FCED92E7FD2274FFC2
:10036800FCFDFEFF22E480F8A2D574FF13FC7D801B
:03037800E480EF2F
:10037B00F920E73624F950037907E4F42402FBE56E
:10038B0082158270021583DBF6E024FB501BE960BB
:10039B0014E4F0E582158270021583E004F0B40AD0
:0D03AB0008E4F0D9EE7401F00A22C2D52258
:1003B800ED33EC3392D5FA602AB4FF33EDC2E77B14
:1003C800FF60067A0379DDE4227A0379E620D50412
:1003D8007A0379E1224E614E002B494E46002D49A1
:1003E8004E4600E47A08F0A3DAFC7B00740722C0CA
:1003F80083C082ECC0E0EDC0E0EEC0E0EFC0E0EA10
:1004080075F010A4CAABF075F04DA42BFBE435F0E1
:10041800FCEA2410FAEB34C5FBEC34D9FCEDC2E756
:10042800FF75F056A4F42411C5F0F434C58FF0A478
:100438002AE5F03BE43CF020E7141204EDD0E0FF9D
:10044800D0E0FED0E0FDD0E0FC12021F8014F404DE
:100458001204EDD0E0FFD0E0FED0E0FDD0E0FC12C9
:100468000116D082D083E0FAEDD2E7CD33EC332405
:1004780082FBE4C3CF33CFCE33CECD33CD33DBF3E2
:100488007B0775F00A846004F0A31B0AE5F0F0A36B
:100498008FF0740AA4FFACF08EF0740AA42CFEACA2
:1004A800F050010C8DF0740AA42CFDE435F0F0A393
:0504B800DBDE740722E9
:1004BD003F8000004120000042C80000447A000047
:1004CD00461C400047C35000497424004B189680C9
:1004DD004CBEBC205A0E1BCA6753C21C749DC5AEC0
:1004ED00FB60065407601C232312051BEB54386078
:1004FD0009120507120516120116ECF8EDF9EEFAC0
:10050D00EFCB22EB12051680F1543803241C900416
:10051D00BDFE93FC0EEE93FD0EEE930ECE93FF22D9
:101F5B00020836E493A3F8E493A34003F68001F25E
:101F6B0008DFF48029E493A3F85407240CC8C33387
:101F7B00C4540F4420C8834004F456800146F6DF56
:101F8B00E4800B01020408102040809017A8E47E27
:101F9B00019360BCA3FF543F30E509541FFEE4934B
:101FAB00A360010ECF54C025E060A840B8E493A312
:101FBB00FAE493A3F8E493A3C8C582C8CAC583CA3D
:101FCB00F0A3C8C582C8CAC583CADFE9DEE780BEF5
:01194900009D
:10052D00E709F608DFFA8046E709F208DFFA803EB0
:10053D0088828C83E709F0A3DFFA8032E309F6089D
:10054D00DFFA8078E309F208DFFA807088828C8305
:10055D00E309F0A3DFFA806489828A83E0A3F608B9
:10056D00DFFA805889828A83E0A3F208DFFA804C93
:10057D0080D280FA80C680D4806980F2803380106A
:10058D0080A680EA809A80A880DA80E280CA8033D3
:10059D0089828A83ECFAE493A3C8C582C8CCC5834B
:1005AD00CCF0A3C8C582C8CCC583CCDFE9DEE7801B
:1005BD000D89828A83E493A3F608DFF9ECFAA9F09A
:1005CD00EDFB2289828A83ECFAE0A3C8C582C8CCF0
:1005DD00C583CCF0A3C8C582C8CCC583CCDFEADE09
:1005ED00E880DB89828A83E493A3F208DFF980CC6B
:1005FD0088F0EF60010E4E60C388F0ED2402B40464
:10060D000050B9F582EB2402B4040050AF2323450A
:06061D00822390057D73AD
:10062300BB010689828A83E0225002E722BBFE02D5
:09063300E32289828A83E4932208
:10063C00BB010CE58229F582E5833AF583E0225073
:10064C0006E92582F8E622BBFE06E92582F8E222BD
:0D065C00E58229F582E5833AF583E49322D7
:10066900BB010689828A83F0225002F722BBFE0170
:02067900F3226A
:10067B00F8BB010DE58229F582E5833AF583E8F0B5
:10068B00225006E92582C8F622BBFE05E92582C861
:02069B00F22249
:10069D00A3F8E0C5F025F0F0E58215827002158310
:0606AD00E0C838F0E8226D
:1006B30075F008758200EF2FFFEE33FECD33CDCCFE
:1006C30033CCC58233C5829BED9AEC99E582984081
:1006D3000CF582EE9BFEED9AFDEC99FC0FD5F0D65E
:1006E300E4CEFBE4CDFAE4CCF9A88222B800C1B988
:1006F3000059BA002DEC8BF084CFCECDFCE5F0CBC6
:10070300F97818EF2FFFEE33FEED33FDEC33FCEBFE
:1007130033FB10D703994004EB99FB0FD8E5E4F9B9
:10072300FA227818EF2FFFEE33FEED33FDEC33FCA6
:10073300C933C910D7059BE99A4007EC9BFCE99A9A
:10074300F90FD8E0E4C9FAE4CCFB2275F010EF2FDF
:10075300FFEE33FEED33FDCC33CCC833C810D707DF
:100763009BEC9AE899400AED9BFDEC9AFCE899F81A
:0E0773000FD5F0DAE4CDFBE4CCFAE4C8F922AD
:0E078100C3E49FFFE49EFEE49DFDE49CFC2289
:10078F00EB9FF5F0EA9E42F0E99D42F0E89C45F0C0
:01079F002237
:1007A000E8600FECC313FCED13FDEE13FEEF13FF37
:0307B000D8F1225B
:0C07B300ECF0A3EDF0A3EEF0A3EFF022B9
:1007BF00A8828583F0D083D0821207D61207D61273
:1007CF0007D61207D6E473E493A3C583C5F0C58398
:1007DF00C8C582C8F0A3C583C5F0C583C8C582C884
:0107EF0022E7
:1007F000F8E0FBA3A3E0F925F0F0E5821582700292
:070800001583E0FA38F02235
:09080700EBF0A3EAF0A3E9F022F2
:10081000D083D082F8E4937012740193700DA3A377
:1008200093F8740193F5828883E47374029368608B
:06083000EFA3A3A380DF8B
:00000001FF
