:1020D00077726974650D0A00526561640D0A0061CA
:1020E00064636B65793A2025750D0A00746F6E651F
:1020F000206B65790D0A00746F6E656B65792069D8
:102100006E0D0A00746F6E656B657920696E320D15
:102110000A0073746172740031353634002E2E2E2D
:102120002E2E2E2E2E2E2E2E2E0D0A0062616E6465
:1021300020766F6C203D2025362E32660D0A007207
:1021400065673A202562752C2562752C2562752CF1
:102150002562752C2562750D0A006D6F64653A2045
:102160002562752C2562752C2562750D0A00A50364
:102170008B0000A5038B00000000000000000000A1
:10218000000000000000000000000000000000004F
:10219000000000000000000000000000000000003F
:1021A000000000000000000000000000000000002F
:1021B000000000000000000000000000000000001F
:1021C000000000000000000000000000000000000F
:1021D00000000000000000000000000000000000FF
:1021E00000000000000000000000000000000000EF
:1021F00000000000000000000000000000000000DF
:1022000000000000000000000000000000000000CE
:06221000000000000000C8
:101D6B004100B10041001000410047004200190042
:101D7B00004100B30041005300410065004100DE0B
:101D8B00004101100041005200410066004400D99F
:101D9B00000000B44100D4004100D5004100D70041
:101DAB004100D800410018004100170041001B0002
:101DBB004100300041004500410046004100A200B7
:101DCB0044009A0000000044009E00000000440004
:101DDB00A3000000004400A7000000004400F8002E
:101DEB000000004100AD004100AE004100B00041D9
:101DFB0000B2004100FF0041001600410097004176
:101E0B0000C9004400F4000000004100FE00410046
:101E1B00480041004A00410062004100C8004200F6
:101E2B004B000042009800FF4200E60100410067B2
:101E3B000041006901410049054100D60741006896
:101E4B000141006C00450011A50384012D4500885C
:101E5B00A5038405314500E1A50384032F45004DFF
:101E6B00A5038C01354500CAA50382032D4501004E
:101E7B00A5038B2053450105A5038B21544600E890
:101E8B00A504820701334500CFA5038C20544500E0
:101E9B0056A50382083245006DA5038A0032450022
:101EAB0072A5038A0436450077A5038A05374500DA
:101EBB007EA5038A0638450083A5038A01334500B6
:101ECB008DA5038A0234450092A5038A033545018B
:101EDB000BA5038D215645005BA5038D22574100B1
:101EEB00DD004401110000000044000C0000000064
:101EFB00420054000042007C00004200FC00004203
:101F0B0000DF000042006300004100AF0041010A06
:101F1B00004200AB00004100000041000100410005
:101F2B00020041000B0044000300000000440007C6
:041F3B0000000000A2
:06358E009001E01208A309
:103594009001E41208AF00000000900062E0702483
:1035A4009001E0E0FCA3E0FDA3E0FEA3E0FFA31292
:1035B40008A39001E4E0FCA3E0FDA3E0FEA3E0FF88
:1035C4001236A6229001E0E0FCA3E0FDA3E0FEA3F6
:1035D400E0FFA31208A39001E4E0FCA3E0FDA3E054
:0735E400FEA3E0FF1236A672
:0135EB0022BD
:0600030090023A1208A36E
:1000090090023A74FF120870EC4D4E4F604F900207
:100019003E1208AF00000000E47F4CFEFDFC900298
:100029003EE0F8A3E0F9A3E0FAA3E0FBC312084A13
:1000390050CE0000000090023EE0FCA3E0FDA3E0EA
:10004900FEA3E0FFE4FAF9F8EF2401FFEA3EFEE936
:0D0059003DFDE83CFC90023E1208A380BB78
:010066002277
:10385A009001E1EBF0A3EAF0A3E9F09001E1E0FBCB
:10386A00A3E0FAA3E0F912067360189001E1E0A35D
:10387A00E475F001120758A9F0FA120673FF12391B
:04388A008280D8223E
:10388E0090026CEBF0A3EAF0A3E9F090026CE0FB7F
:10389E00A3E0FAA3E0F9120673601890026CE0A39D
:1038AE00E475F001120758A9F0FA120673FF1239E7
:0438BE008280D8220A
:1037ED009001E6EBF0A3EAF0A3E9F0A31208A39091
:1037FD0001E974FF120870EC4D4E4F60199001E60F
:10380D00E0FBA3E475F001120758A9F0FA12067354
:07381D00FF12398280D9225D
:10332100A2AF920CC2AF75C7AA75C755439F01A240
:103331000C92AFA2AF920CC2AF75C7AA75C7554325
:10334100A504A20C92AF75A604E4F5A775AE0F759E
:10335100AFE1A2AF920CC2AF75C7AA75C75543A41E
:1033610001A20C92AFE59F20E6FBA2AF920CC2AF87
:1033710075C7AA75C75553A5FBA20C92AFA2AF9210
:103381000CC2AF75C7AA75C755539FFEA20C92AF69
:013391002219
:101B9200A2AF920CC2AF75C7AA75C755439F01A2E7
:101BA2000C92AF75AF0475A60DE4F5A7A2AF920C27
:101BB200C2AF75C7AA75C75543A401A20C92AF90D4
:101BC20001C8E5AEF0E054F0A3F0E06480600302E7
:101BD2001C5A9001C8E0540FF075A60CE4F5A7A2B8
:101BE200AF920CC2AF75C7AA75C75543A401A20C28
:101BF20092AF9001C7E5AEF0E075F010A4FFA3E04C
:101C02007C002FFDEC35F0FCE41203119001CA12A6
:101C120008A3E4FFFE7D407C409001CAE0F8A3E007
:101C2200F9A3E0FAA3E0FB120166E4FBFA798078FB
:101C32004012026F9001CE1208A3E4FFFE7D047CE5
:101C4200C29001CEE0F8A3E0F9A3E0FAA3E0FB1210
:101C520000759000F01208A39001C9E0706890012D
:101C6200C8E0540FF075A60CE4F5A7A2AF920CC21F
:101C7200AF75C7AA75C75543A401A20C92AF9001D4
:101C8200C7E5AEF0E075F010A4FFA3E07C002FFDE5
:101C9200EC35F0FCE41203119001CA1208A3E4FF30
:101CA200FE7D407C409001CAE0F8A3E0F9A3E0FA8F
:101CB200A3E0FB120166E4FBFA7980784012026F1E
:101CC2009000F01208A39001C9E064906003021D25
:101CD2005775A60EF5A7A2AF920CC2AF75C7AA752B
:101CE200C75543A401A20C92AF9001C7E5AEF075AF
:101CF200A60FE4F5A7A2AF920CC2AF75C7AA75C72B
:101D02005543A401A20C92AFA3E5AEF0E0540FF04C
:101D12009001C7E075F010A4FFA3E07C002FFDEC5A
:101D220035F0FCE41203119001CA1208A3E4FFFE8D
:101D32007D407C409001CAE0F8A3E0F9A3E0FAA359
:101D4200E0FB120166E4FBFA7980784012026F90A0
:101D520000F01208A3A2AF920CC2AF75C7AA75C752
:081D620055539FFEA20C92AF45
:011D6A002256
:1038E900A2AF920AC2AF75C7AA75C755439F0175A2
:0D38F900C7AA75C75543A501A20A92AF22C8
:10390600A2AF920AC2AF75C7AA75C75553A5FE7571
:0D391600C7AA75C755539FFEA20A92AF22A3
:10394F00A2AF920AC2AF75C7AA75C75543A401A209
:04395F000A92AF22F7
:10176700900115EEF0A3EFF0A3EBF0A3EAF0A3E9E5
:01177700F081
:101778001238E9900115E0A3E0547F90011CF0E0D5
:10178800FFC374809F90011BF0E0FF90011AE0D323
:101798009F4006A3E090011AF0900115E0FEA3E037
:1017A800FF90011DEEF0A3EFF0E490011BF0900113
:1017B8001AE0FFA3E0C39F501DE0FF90011DE0FC6D
:1017C800A3E02FF582E43CF583E493B4FF0890018D
:1017D8001BE004F080D890011AE0FFA3E06F6003DB
:1017E80002189075AF21900115E0A3E0F5A69001CD
:1017F80015E0FEA3E0EEF5A7E490011BF090011AB6
:10180800E0FFA3E0C39F5026900117E0FBA3E0FA96
:10181800A3E0F990011BE0F58275830012068CF5B0
:10182800AE12394F05A690011BE004F080CFE4907A
:10183800011BF090011AE0FFA3E0C39F503890010C
:1018480017E0FBA3E0FAA3E0F990011BE0F582752D
:10185800830012068CFF90011BE0FE90011DE0FC46
:10186800A3E02EF582E43CF583E493B507089001E4
:101878001BE004F080BD90011AE0FFA3E06F700345
:101888000219AC80030219AC900115E0FEA3E054E4
:1018980080FF90011DEEF0A3EFF0E490011BF090A3
:1018A800011BE0C39480502AE0FF90011DE0FCA3D7
:1018B800E02FF582E43CF583E493FF90011BE024DC
:1018C8001FF582E43401F583EFF090011BE004F08A
:1018D80080CDE490011BF090011AE0FFA3E0C39FC4
:1018E8005033900117E0FBA3E0FAA3E0F990011B45
:1018F800E0F58275830012068CFF90011BE0FEA3C1
:10190800E02E241FF582E43401F583EFF090011BEB
:10191800E004F080C2900115E0A3E05480F5A690A1
:101928000115E0FEA3E0EEF5A775AF2275AEFF1234
:10193800394F75AF21E490011BF090011BE0C3946F
:1019480080501AE0241FF582E43401F583E0F5AEF7
:1019580012394F05A690011BE004F080DDE49001E8
:101968001BF090011BE0C39480502EE0FF90011DF6
:10197800E0FCA3E02FF582E43CF583E493FF9001BB
:101988001BE0241FF582E43401F583E0FEEFB50681
:101998000890011BE004F080C990011BE06480609E
:0C19A8000302191D12390690011AE0FF1D
:0119B4002210
:10256400900227EEF0A3EFF0A3EBF0A3EAF0A3E9C7
:01257400F076
:10257500900227E0FEA3E07807CEC313CE13D8F967
:1025850090022EF090022CE0FEA3E0FF900227E0DF
:10259500FCA3E02FFFEC3EFEEF7807CEC313CE136E
:1025A500D8F990022FF090022FE0FF90022EE06FF5
:1025B500606C900227E0FEA3E0FFA3E0FBA3E0FA36
:1025C500A3E0F990011A7480F0121767900230EFBA
:1025D500F0E0FF900228E02FF0900227E03400F0B1
:1025E500900230E090022AE48FF012074290022C0C
:1025F500E0FEA3E0FF900230E0FDC3EF9DFFEE9407
:102605000090022CF0A3EFF0900227E0FEA3E07803
:1026150007CEC313CE13D8F990022EF0808890020E
:102625002CE0FEA3E04E601C900227E0FEA3E0FF35
:10263500A3E0FBA3E0FAA3E0F9A3E0A3E090011A6D
:04264500F012176711
:01264900226E
:10339200900231EEF0A3EFF0A3EBF0A3EAF0A3E981
:0133A200F03A
:1033A300E4900238F0A3F0900236E0FEA3E0FFA31E
:1033B300E0FCA3E0C39FEC9E5043900238E0FEA3E1
:1033C300E0FF900231E0FCA3E02FF582EC3EF583B1
:1033D300E493FF900233E0FBA3E0FAA3E0F9900249
:1033E30038E0FCA3E0F5828C83EF1206CB90023920
:0D33F300E004F07006900238E004F080AABB
:0134000022A9
:1039230043B30843B40843B31043B410C2C6C2C080
:0639330075BE27D2C6227A
:10393900E5BD7011D209D2C4C2C330C308C2C6D210
:06394900C6C2C3C2C62283
:0E2AD9009001DBEFF0A3EBF0A3EAF0A3E9F02D
:102AE700D2C5C2C330C3FDE5BD6408600DD2097B02
:102AF700FF7A2079D012385A8070C2C575BCA0C23F
:102B0700C330C3FDE5BD64186004D209805C900141
:102B1700DBE0F5BCC2C330C3FDE5BD64286004D269
:102B2700098047E49001E0F09001DFE0FFA3E0C3F4
:102B37009F50309001DCE0FBA3E0FAA3E0F990019D
:102B4700E0E0F58275830012068CF5BCC2C330C382
:102B5700FDE5BD64286004D209800F9001E0E00420
:102B6700F080C5D2C4C2C320C4FD300910D2C4C28C
:0D2B7700C320C4FD123939C209C2C6D2C63E
:012B8400222E
:0E264A009001C7EFF0A3EBF0A3EAF0A3E9F0D4
:10265800D2C5C2C330C3FDE5BD6408600ED2097B94
:10266800FF7A2079D812385A02271D75BCA0C2C536
:10267800C2C330C3FDE5BD64186005D20902271D39
:102688009001C7E0F5BCC2C330C3FDE5BD64286056
:1026980005D20902271DD2C5C2C330C3FDE5BD64FA
:1026A800106004D209806EC2C575BCA1C2C330C314
:1026B800FDE5BD64406004D209805AE49001CCF085
:1026C8009001CBE0FFA3E0C39F5032D2C2C2C33017
:1026D800C3FDE5BD64506004D20980399001C8E0AB
:1026E800FBA3E0FAA3E0F99001CCE0F58275830042
:1026F800E5BC1206CB9001CCE004F080C3C2C2C294
:10270800C330C3FDE5BD64586004D2098007C2C365
:10271800D2C420C4FD300909123939C209C2C6D24F
:01272800C6EA
:01272900228D
:0F2C31009001E6EBF0A3EAF0A3E9F0A31208A3E9
:102C40009001ED1208AF00000000E49001F1F0A344
:102C5000F0A3F09001ED1208AF000000009001E930
:102C6000E0FCA3E0FDA3E0FEA3E0FFA3E0F8A3E007
:102C7000F9A3E0FAA3E0FBC312084A50529001ED19
:102C8000E0A3E0A3E0FEA3E0FF9001E6E0FBA3E009
:102C9000FAA3E0F98F828E8312068CFF9001F3E095
:102CA0002FF09001F2E03400F09001EDE0FCA3E0A1
:102CB000FDA3E0A3E0FFE4FAF9F8EF2401FFEA3E08
:102CC000FEE93DFDE83CFC9001ED1208A3808E90EA
:0B2CD00001F2E0A3E09001F1F0E0FF52
:012CDB0022D6
:102A28009001DBEFF0E01209002A4A002A5D012A32
:102A380070022A83032A96042AA9052ABC060000E4
:102A48002ACD7B017A00796D7F057E007D007C00B0
:102A58001237ED80707B017A0079727F057E007DE8
:102A6800007C001237ED805D7B017A0079777F0565
:102A78007E007D007C001237ED804A7B017A007968
:102A88007E7F057E007D007C001237ED80377B015C
:102A98007A0079837F057E007D007C001237ED8007
:102AA800247B017A00798D7F057E007D007C0012F1
:102AB80037ED80117B017A0079927F057E007D00D9
:102AC8007C001237ED7F0A7E007D007C0012358E77
:012AD80022DB
:053760009001E0EFF014
:103765007BFF7A21796E78E17C017D017E007F0502
:1037750012064D9001E0E09001E4F07B017A0179B9
:10378500E17F047E007D007C00122C319001E5EF85
:10379500F07B017A0179E17F057E007D007C0012D6
:0237A50037EDFE
:0137A70022FF
:0B30A6009001DBEFF0A3ECF0A3EDF0D5
:1030B100E4A3F0A3F09001DBE0FD7C00A3E0FEA31C
:1030C100E0FF1206EDA3EEF0A3EFF09001DEE0FECB
:1030D100A3E0C3944BEE940050099001DEE4F0A309
:1030E100744BF09001DBE06025FF1237609001DE48
:1030F100E0FEA3E0FFE4FCFD12358E9001DBE0C3AE
:103101009402400AE014F0E014F080D780D5E490F6
:1031110001DBF0E0FF1237609001DEE0FEA3E0FF8B
:06312100E4FCFD12358EF6
:013127002285
:0B2CDC009001D1EFF0A3ECF0A3EDF0AD
:102CE700E4A3F0A3F0A3F09001D1E0FD7C00A3E002
:102CF700FEA3E0FF1206EDA3EEF0A3EFF09001D4E0
:102D0700E0FEA3E0C3944BEE940050099001D4E495
:102D1700F0A3744BF09001D1E0FF9001D6E0D39F70
:102D27005039E0FF1237609001D4E0FEA3E0FFE4E2
:102D3700FCFD12358E9001D1E0D394015004801B25
:102D470080D39001D1E024FEFF9001D6E0D39F50BD
:102D57000AE004F0E004F080BC80BA9001D1E0FF03
:102D67009001D6E0C39F50159001D1E012376090D3
:0D2D770001D4E0FEA3E0FFE4FCFD12358E68
:012D8400222C
:05301200900242EFF006
:103017007BFF7A21797378437C027D017E007F05EF
:1030270012064D900242E0D3940A4003740AF090CE
:103037000242E0120900306200306901307102304B
:1030470071033071043071053071063071073071CA
:103057000830710930710A0000307EE4900246F0B2
:1030670080159002467404F0800D900242E075F0DE
:1030770003A404900246F07B017A0279437F047E21
:10308700007D007C00122C31900247EFF07B017A23
:0E3097000279437F057E007D007C001237ED3C
:0130A5002208
:10233F007BFF7A21797878C77C017D017E007F143D
:10234F0012064DE49001DBF0A3F0A31208AF0000DA
:10235F00000043E80853E8F843E101C2EFD2EE3042
:10236F00EFFDAFC3900054E4F0A3EFF0900054E002
:10237F00FEA3E0C4F8540FC868FFEEC454F04890B1
:10238F000054F0A3EFF0900054E0FEA3E0FFE5C28D
:10239F00540FFDEEEF4DFF900054EEF0A3EFF0530E
:1023AF00E1FE53E8F043E80543B11053B2EFE4F513
:1023BF00F643F62043E101C2EFD2EE30EFFDAFC39B
:1023CF009001DBE4F0A3EFF09001DBE0FEA3E0C4AB
:1023DF00F8540FC868FFEEC454F0489001DBF0A327
:1023EF00EFF09001DBE0FEA3E0FFE5C2540FFDEE3E
:1023FF00EF4DFF9001DBEEF0A3EFF09001DBE0FC7F
:10240F00A3E0FDE41203119000F0E0F8A3E0F9A3BC
:10241F00E0FAA3E0FB1201667B007AC079BE784434
:10242F0012026F9001DD1208A39001DDE0FCA3E022
:10243F00FDA3E0FEA3E0FF12034A90007CEEF0A3A1
:0B244F00EFF090010A7401F053E1FE71
:01245A00225F
:10297300A2AF920BC2AF75C7AA75C755439F01A2F9
:102983000B92AF75A630E4F5A775AF04A2AF920B17
:10299300C2AF75C7AA75C75543A401A20B92AF90E6
:1029A3000248E5AEF075A631E4F5A7A2AF920BC2DB
:1029B300AF75C7AA75C75543A401A20B92AFA3E590
:1029C300AEF0A2AF920BC2AF75C7AA75C755539F9E
:1029D300FEA20B92AF900248E025E0FFE433FEA392
:1029E300E054017C002FFFEC3EA3F0A3EFF0E024C2
:1029F300F1F090024AE034FFF0E0A3E054019002CA
:102A030049F0A3E0FEA3E0FFEEC313EF13900248E7
:102A1300F075C7AA75C755E0F58475C7AA75C7557C
:042A2300A3E0F585B2
:012A2700228C
:1031280053B1DF43B220A2AF920CC2AF75C7AA75E4
:10313800C75543910143C60475C7AA75C75553912E
:10314800FEA20C92AFA2AF920C75C7AA75C75575AF
:10315800910153B7F843B70275C7AA75C755E4F587
:1031680091A20C92AFA2AF920C75C7AA75C75575FC
:10317800910153B7CF75C7AA75C755F591A20C929F
:10318800AF43DF0153DFF975D10175D9FFF5D47568
:10319800DCFF43EF0843F708439B08D2AFD2DE2297
:03006B00021F4031
:101F4000C0E0C083C082C0D075D000C000C004C053
:101F500005C006C007C2DD900067E0603190006CEC
:101F6000E0FF90004CE02FF090004BE03400F0E0F8
:101F7000FEA3E0C394FEEE64809481404990004B40
:101F80007401F0A374FEF0900067E4F080389000D4
:101F90004BE0FEA3E0FF90006CE0FDC3EF9DFFEE81
:101FA000940090004BF0A3EFF090004BE0FEA3E014
:101FB000D39400EE64809480500C90004BE4F0A326
:101FC00004F0900067F0900098E0A3E05401FF90C7
:101FD00000E6E4F0A3EFF0900098E0FEA3E0FFEE4F
:101FE000C313FEEF13FF900098EEF0A3EFF0900004
:101FF000E6E0FEA3E04E6007900098E064B4F09045
:102000000068E02407FF900098E0FCA3E0AE04A87D
:1020100007088005CEC313CE13D8F9FF900060EEF9
:10202000F0A3EFF090004BE0FEA3E0FF9000D6E0BD
:10203000FDEFA805088006CEA2E713CE13D8F8FF5F
:1020400090006AEEF0A3EFF090006AE0FEA3E0FFDC
:10205000900061E02FF0900060E03EF0E0FEA3E031
:10206000FF9000EEEEF0A3EFF0900060E0A3E0EE52
:102070005401900060F0A3EFF0900060E0FEA3E058
:102080004E7007900060F0A304F0900060E0FEA3A3
:10209000E0B4FF0EEEB4010A9000607401F0A37486
:1020A000FEF0900060E0FEA3E0EEFF3395E0EF5419
:1020B00001F5D4900060E0A3E0F5DCD2DED007D0DB
:1020C00006D005D004D000D0D0D082D083D0E0326A
:102E2D00900069E01209002E4A012E62022E7A03EB
:102E3D002E92042EA7052EBD0600002ED29000491D
:102E4D007401F09000D67407F09000687401F0E4FE
:102E5D0090006CF0229000497401F09000D6740738
:102E6D00F09000687401F0E490006CF0229000493D
:102E7D007401F09000D67407F09000687401F0E4CE
:102E8D0090006CF0229000497401F09000D604F08F
:102E9D0090006804F090006CF0229000497401F0ED
:102EAD009000D604F0900068F090006C7404F0224D
:102EBD009000497401F09000D604F0900068F090F5
:062ECD00006C7405F02208
:053401009001DBEFF07B
:10340600E4A3F09001DBE012090034260134320215
:10341600343E033448043454053460060000346AEC
:10342600900110E024049001DCF08038900110E057
:1034360024029001DCF0802C900110E09001DCF079
:103446008022900110E0240C9001DCF0801690019F
:1034560010E024099001DCF0800A900110E02409B4
:093466009001DCF09001DCE0FFB4
:01346F00223A
:1031A8007F0A7E007D007C0012358ED2907FE87EFB
:1031B800037D007C0012358EC2907F647E007D0006
:1031C8007C0012358E7B017A0079117F057E007DA7
:1031D800007C001237ED7FF47E017D007C00123503
:1031E8008ED2917F0A7E007D007C0012358E7F642E
:1031F8007E007D007C0012358EE4FF122A287F0AAB
:103208007E007D007C0012358E7FD07E077D007C9D
:103218000012358E7F087E077D007C0012358E22D5
:102ED3007F0A7E007D007C0012358ED2907FE87ED3
:102EE300037D007C0012358EC2907F0A7E007D0038
:102EF3007C0012358E7B017A0079887F057E007D08
:102F0300007C001237ED7FC87E007D007C00123507
:102F13008E900069E0FF122A287FF47E017D007CF9
:102F23000012358E122E2D7F0A7E007D007C00124A
:102F3300358EE4FF1237607F647E007D007C0012D3
:102F4300358E123128D2DF9000DD7401F0D2917FEB
:102F53000A7E007D007C0012358E900069E0FF122E
:102F63003401900065EFF0E0FF7DF47C01122CDC6E
:032F7300D29222D5
:102D85007BFF7A21798C78D17C017D017E007F0AD9
:102D950012064DC281C296900069E0FF123401907F
:102DA5000065EFF0E0FF7DF47C011230A6539BF740
:102DB500C2DFE4900062F0C291C292D2C69000B325
:102DC500E070279001D104F09000DDE09001D2F091
:102DD500900052E09001D3F0900110E09001D4F002
:102DE500900069E09001D5F080159001D17401F053
:102DF500E4A3F0A37408F0A3740AF0A37401F07BB4
:102E0500017A0179D19001DF7405F07F01122AD989
:102E15007F0A7E007D007C0012358EC283E490001F
:072E2500C9F090005304F016
:012E2C002283
:10272A007BFF7A21799678D17C017D017E007F0A30
:10273A0012064DC281C2967F967E007D007C0012F1
:10274A00358EC2927B017A0079E17F057E007D0099
:10275A007C001237ED7F0A7E007D007C0012358EE8
:10276A007FAC7E0D7D007C0012358EC2917F0A7E81
:10277A00007D007C0012358ED2C69000B3E070272F
:10278A009001D104F09000DDE09001D2F090005267
:10279A00E09001D3F0900110E09001D4F09000692C
:1027AA00E09001D5F080159001D17401F0E4A3F016
:1027BA00A37408F0A3740AF0A37401F07B017A01F0
:1027CA0079D19001DF7405F07F01122AD97F0A7E40
:1027DA00007D007C0012358EC283E49000C9F0901F
:0427EA00005304F0A4
:0127EE0022C8
:1027EF007BFF7A2179A078C77C017D017E007F0A6B
:1027FF0012064DC2917F0A7E007D007C0012358E3D
:10280F00D2927B017A0079CF7F057E007D007C001C
:10281F001237ED7FDC7E057D007C0012358EE4FFE4
:10282F001237607F647E007D007C0012358E900031
:10283F0069E0FF122A287F647E007D007C0012353C
:10284F008ED2917F0A7E007D007C0012358ED2DF02
:10285F009000627401F0900069E0FF123401900063
:10286F0065EFF0E0FF7DF47C01122CDC7F0A7E0027
:10287F007D007C0012358E9000DD7401F0D2C6E031
:10288F009001C8F07B017A0179C89001DF7401F0E3
:10289F007F02122AD97F0A7E007D007C0012358EBE
:0228AF00C2C69F
:0128B1002204
:1028B2007BFF7A2179AA78D17C017D017E007F0A93
:1028C20012064DE49000B1F0900069E0FF1234016D
:1028D200900065EFF0E0FF7DF47C011230A6C2DFCC
:1028E200E4900062F07B017A00795B7F05FEFDFCDB
:1028F2001237ED7FE87E037D007C0012358EC29197
:102902007F0A7E007D007C0012358E7B017A007981
:10291200CF7F057E007D007C001237ED7FF47E01C3
:102922007D007C0012358EE4FF122A287F647E002F
:102932007D007C0012358ED2917F0A7E007D007C64
:102942000012358EE49000DDF0C292D2C6E0900112
:10295200D2F07B017A0179D29001DF7401F07F021B
:10296200122AD97F0A7E007D007C0012358EC2C6F3
:012972002242
:103824003095157F0A7E007D007C0012358E309520
:10383400249000167401F02220951A900016E0B42A
:10384400010B7F0A7E007D007C0012358E209505D9
:06385400E4900016F022D2
:10221600900000E06003022325900016E0700302A0
:1022260022AD9000F4E0FCA3E0FDA3E0FEA3E0FFF6
:10223600E4FAF9F8EF2401FFEA3EFEE93DFDE83C49
:10224600FC9000F41208A39000C9E0702C7F1EFEDB
:10225600FDFC9000F4E0F8A3E0F9A3E0FAA3E0FBAC
:10226600C312084A500302233E9000977402F0906E
:1022760000FE14F0900000F022E47FC8FEFDFC9002
:1022860000F4E0F8A3E0F9A3E0FAA3E0FBC3120828
:102296004A500302233E9000977403F09000FE74A8
:1022A60001F0900000F022E47F01FEFDFC9000F4B6
:1022B600E0F8A3E0F9A3E0FAA3E0FBC312084A5052
:1022C60006E4900097F022E47F1EFEFDFC9000F4E9
:1022D600E0F8A3E0F9A3E0FAA3E0FBC312084A5032
:1022E6000B9000977401F09000FEF022E47FC8FE88
:1022F600FDFC9000F4E0F8A3E0F9A3E0FAA3E0FB0C
:10230600C312084A500C9000977402F09000FE1415
:10231600F0229000977403F09000FE7401F0229072
:102326000016E07013900000F09000F41208AF0061
:08233600000000E4900097F0A4
:01233E00227C
:102F7600900097E06401702A9000DDE070082092CE
:102F86000590001004F09000DDE0B40106309203D5
:102F96001228B29000F41208AF00000000E490007E
:102FA60097F0900097E06402703F9000C9E0701CB3
:102FB600900053F0D2839000DDE070051231A880B6
:102FC60003122ED39000C97401F0800E9000DDE04C
:102FD600700512272A8003122D859000F41208AF7F
:102FE60000000000E4900097F0900097E0B4031B07
:102FF6009000DDE07004B2928002B2929000F4126A
:0C30060008AF00000000E4900097F022EA
:1014DC0090010AE064016003021766F090007CE062
:1014EC00FEA3E0FF9000ABEEF0A3EFF07B017A00DF
:1014FC00791C9001CA74FFF0A37420F0A374DFF080
:10150C009000ABE0FEA3E0FF9001CDEEF0A3EFF076
:10151C0012098B9000ABE0FEA3E0C39460EE94093B
:10152C0040397F0A7E007D007C0012358E9000AB26
:10153C00E0FEA3E0C39460EE94095003021766909A
:10154C0000667401F0E49000D4F0A3F09000D7F0A2
:10155C00A3F0900018F0900017F0229000ABE0FE82
:10156C00A3E0C394D0EE940750030216079000AB8F
:10157C00E0A3E0D39460EE940940030216077F0ABF
:10158C007E007D007C0012358E9000ABE0FEA3E067
:10159C00C394D0EE940750030217669000ABE0A3FF
:1015AC00E0D39460EE940940030217669000D7E0F4
:1015BC0070287B017A00791C12385A7F027E007DDC
:1015CC00007C0012358E7BFF7A2079EC12385A7F22
:1015DC00027E007D007C0012358EE4900066F09057
:1015EC0000D4F0A3F09000D704F0E4A3F09000181E
:1015FC00F0900017F090004504F0229000ABE0FE54
:10160C00A3E0C394AAEE940540639000ABE0A3E082
:10161C00D3943AEE940750557F0A7E007D007C00EF
:10162C0012358E9000ABE0FEA3E0C394AAEE9405B5
:10163C0050030217669000ABE0A3E0D3943AEE940B
:10164C000740030217669000D5E0700590004A042D
:10165C00F0E4900066F09000D4F0A304F0E4900065
:10166C00D7F0A3F0900018F0900017F0229000AB88
:10167C00E0FEA3E0C394D8EE940340639000ABE08B
:10168C00A3E0D39468EE940550557F0A7E007D004C
:10169C007C0012358E9000ABE0FEA3E0C394D8EE34
:1016AC00940350030217669000ABE0A3E0D3946858
:1016BC00EE940540030217669000D4E0700590008C
:1016CC004804F0E4900066F09000D404F0E4A3F039
:1016DC009000D7F0A3F0900018F0900017F0229033
:1016EC0000ABE0FEA3E0C3949FEE94024052900046
:1016FC00ABE0A3E0D3942FEE940450447F0A7E0019
:10170C007D007C0012358E9000ABE0FEA3E0C3940C
:10171C009FEE940240449000ABE0A3E0D3942FEEF4
:10172C0094045036E4900066F09000D4F0A3F0904E
:10173C0000D7F0A3F090001804F0E4900017F0220A
:10174C00E4900066F09000D4F0A3F09000D7F0A3E2
:0B175C00F0900018F090001704F0223D
:1011D4009000D4E0602790009AE0FCA3E0FDA3E037
:1011E400FEA3E0FFE4FAF9F8EF2401FFEA3EFEE98A
:1011F4003DFDE83CFC90009A1208A3800F90009AF1
:101204001208AF00000000E4900048F0900048E0AD
:10121400B4011AE47F07FEFDFC90009AE0F8A3E015
:10122400F9A3E0FAA3E0FBC312084A501AE47F23AF
:10123400FEFDFC90009AE0F8A3E0F9A3E0FAA3E035
:10124400FBC312084A401490009A1208AF00000031
:1012540000E4900048F090001B04F09000D5E0609A
:101264002790009EE0FCA3E0FDA3E0FEA3E0FFE4E2
:10127400FAF9F8EF2401FFEA3EFEE93DFDE83CFC03
:1012840090009E1208A3800F90009E1208AF0000E9
:101294000000E490004AF090004AE0B4011AE47FB0
:1012A40007FEFDFC90009EE0F8A3E0F9A3E0FAA39A
:1012B400E0FBC312084A501AE47F23FEFDFC9000B1
:1012C4009EE0F8A3E0F9A3E0FAA3E0FBC312084A06
:1012D400401490009E1208AF00000000E490004A01
:1012E400F090003004F0900001E060030213F390EA
:1012F40000D7E0605C9000A3E0FCA3E0FDA3E0FE67
:10130400A3E0FFE4FAF9F8EF2401FFEA3EFEE93D29
:10131400FDE83CFC9000A31208A39000D9E0FCA3D4
:10132400E0FDA3E0FEA3E0FF9000A3E0F8A3E0F952
:10133400A3E0FAA3E0FBC312084A500302140C9082
:1013440000457402F09000B014F0900001F0021413
:101354000CE47F08FEFDFC9000A3E0F8A3E0F9A3F1
:10136400E0FAA3E0FBC312084A5007E4900045F0FA
:101374008071E47F08FEFDFC9000A3E0F8A3E0F98F
:10138400A3E0FAA3E0FBC312084A402A9000D9E084
:10139400FCA3E0FDA3E0FEA3E0FF9000A3E0F8A31C
:1013A400E0A3E0A3E012084A500C9000457401F059
:1013B4009000B0F0802D9000D9E0FCA3E0FDA3E004
:1013C400FEA3E0FF9000A3E0F8A3E0F9A3E0FAA3F2
:1013D400E0FBC312084A400B9000457402F09000F1
:1013E400B014F09000A31208AF0000000080199020
:1013F40000D7E07013900001F09000A31208AF0032
:10140400000000E4900045F0900002E06003021444
:10141400C2900018E060539000F8E0FCA3E0FDA344
:10142400E0FEA3E0FFE4FAF9F8EF2401FFEA3EFE50
:10143400E93DFDE83CFC9000F81208A3E47F907EAF
:1014440001FDFC9000F8E0F8A3E0F9A3E0FAA3E0C2
:10145400FBC312084A50030214DB9000A27402F08A
:101464009000FF14F0900002F022C296E47F01FE87
:10147400FDFC9000F8E0F8A3E0F9A3E0FAA3E0FB98
:10148400C312084A5006E49000A2F022E47F907E42
:1014940001FDFC9000F8E0F8A3E0F9A3E0FAA3E072
:1014A400FBC312084A500B9000A27401F09000FF95
:1014B400F0229000A27402F09000FF14F022900039
:1014C40018E07013900002F09000F81208AF0000CA
:0714D4000000E49000A2F00B
:0114DB0022EE
:10245B007BFF7A2179B478F77C017D017E007F26A2
:10246B0012064D7BFF7A2179DA781D7C027D017E85
:10247B00007F0A12064D900069E0FF1234019000B4
:10248B0065EFF0E0FF7DF47C011230A6C2917F0A6C
:10249B007E007D007C0012358EC2DFE4900062F07E
:1024AB00900069E004F0E0C3940740037401F0125C
:1024BB002E2D7F0A7E007D007C0012358E900069E8
:1024CB00E0FF122A287F647E007D007C0012358E8F
:1024DB00123128D2DF9000627401F0D2917F0A7E14
:1024EB00007D007C0012358E900069E0B4012BC298
:1024FB00DFE4900062F07B017A00795B7F05FEFDE3
:10250B00FC1237ED7FE87E037D007C0012358E12C6
:10251B003128D2DF9000627401F0900069E0FF1265
:10252B003401900065EFF0E0FF7DF47C01122CDCB0
:10253B00D2C6900069E0900221F07B017A027921EA
:10254B009001DF7401F07F05122AD97F0A7E007D8E
:08255B00007C0012358EC2C69F
:012563002255
:1019B5007BFF7A2179E478C77C017D017E007F0A6F
:1019C50012064D90001BE064016003021A51F0906D
:1019D50000B3E064017003021B919000DDE0701B11
:1019E5007B017A0179057F05FEFDFC1237ED7F0A43
:1019F5007E007D007C0012358E8051900110E0D371
:101A050094004003E014F0900069E0FF1234019067
:101A15000065EFF0E0FF1237607F0A7E007D007CF5
:101A25000012358ED2C6900110E09001CAF07B01FC
:101A35007A0179CA9001DF7401F07F04122AD97FF7
:101A45000A7E007D007C0012358EC2C6900030E013
:101A550064016003021ADAF09000B3E064017003D8
:101A6500021B919000DDE0701B7B017A0179007FFC
:101A750005FEFDFC1237ED7F0A7E007D007C00121D
:101A8500358E8051900110E0C394025003E004F0BC
:101A9500900069E0FF123401900065EFF0E0FF125D
:101AA50037607F0A7E007D007C0012358ED2C6909D
:101AB5000110E09001CAF07B017A0179CA9001DF3B
:101AC5007401F07F04122AD97F0A7E007D007C0014
:101AD50012358EC2C69000B0E064017042F09000ED
:101AE50045E0B401289000A31208AF00000000E40F
:101AF500900045F09000DDE0700790001004F08044
:101B0500031228B27BFF7A2079F712385A900045E4
:101B1500E0B4020BE4F07BFF7A21790412385A9085
:101B250000FFE06401705CF09000A2E0B4010F904A
:101B350000F81208AF00000000E49000A2F0900049
:101B4500A2E06402703D9000F81208AF00000000AA
:101B5500E49000A2F09000B304F0FB7A0079567F80
:101B6500057E007D007C001237ED7FE87E037D0059
:101B75007C0012358E9000DDE0700512272A800367
:0C1B8500122D85900046E0B40102E4F04F
:011B91002231
:10396300900047E064016008E4900010F01227EF34
:013973002231
:100DA9007BFF7A2179EE789F7C017D017E007F149B
:100DB90012064D7BFF7A22790278B37C017D017E90
:100DC900007F0A12064D7BFF7A22790C78BD7C01DF
:100DD9007D017E007F0A12064D43B10153B2FE43E5
:100DE900B38053B47F43AC0153ADFE7F007EC27D17
:100DF900017C001232287F0A7E007D007C001236B9
:100E0900A67BFF7A21791212385A7BFF7A21791849
:100E190012385A7BFF7A21791D12385A7F0A7E00CF
:100E29007D007C001236A6A2AF920CC2AF75C7AA8C
:100E390075C755439620A20C92AF121B927B017A7B
:100E490001799F9001CA74FFF0A37421F0A3742C57
:100E5900F09000F0E0FCA3E0FDA3E0FEA3E0FF902A
:100E690001CD1208A312098B43B32053B4DF53B148
:100E7900F743B208C28353B3FE43B401C29053B3DC
:100E8900FD43B402C29153B3FB43B404C29253B1BC
:100E9900FD43B202C28153B3BF43B440D29643B1BA
:100EA9000453B2FB1231281239237B017A0179BD2F
:100EB9009001CB7405F07F0112264A7F027E007DE6
:100EC900007C001236A6C2C67B017A01799F900187
:100ED900CA74FFF0A37421F0A3743FF09001BDE040
:100EE9009001CDF09001BEE09001CEF09001C1E0FB
:100EF9009001CFF09001C0E09001D0F09001BFE0E7
:100F09009001D1F012098B7B017A01799F12385A2D
:100F19009001BDE0B4011EA3E09000DDF090005205
:100F29007408F09001C0E0900110F09001C1E090C8
:100F39000069F08017E49000DDF09000527408F029
:100F4900900110740AF09000697401F0900069E052
:100F5900FF123401900065EFF07B017A01799F90CF
:100F690001CA74FFF0A37421F0A3745AF0900069C8
:100F7900E09001CDF0900110E09001CEF090006575
:100F8900E09001CFF012098B7B017A01799F123829
:100F99005A7F147E007D007C0012358E9000DDE0C2
:100FA900D394014002E4F0900110E0D3940240038D
:100FB900740AF0900069E06005D394064006900039
:100FC900697401F09000537401F0E49000B3F0905B
:100FD90000DD04F0900069F0E4900110F0122E2D6C
:100FE9009000DDE070069000B1F080069000B174C9
:020FF90001F005
:100FFB00123824122216122F76900053E0B40106F9
:10100B00C281D29680EA9000DDE0600302112120BC
:05101B00820302111622
:1010200090000312086EE47B32FAF9F8C312084A02
:10103000500C9000031208AF00000000B281900035
:1010400007E0FCA3E0FDA3E0FEA3E0FFE4FAF9F86B
:10105000EF2401FFEA3EFEE93DFDE83CFC9000077D
:101060001208A390000BE070597F05FEFDFC900074
:1010700007E0F8A3E0F9A3E0FAA3E0FBD312084AE3
:1010800050030211129000071208AF0000000090F8
:10109000000B7401F09000B1E0707790004704F00D
:1010A000E4900019F0A3F07B017A01790B7F05FE33
:1010B000FDFC1237ED7F0A7E007D007C0012358E2C
:1010C0008050E47F4A7E01FDFC900007E0F8A3E039
:1010D000F9A3E0FAA3E0FBD312084A4035900007D9
:1010E0001208AF000000009000B1E07025900047AA
:1010F00004F0E4900019F0A3F07B017A01790B7FF2
:1011000005FEFDFC1237ED7F0A7E007D007C00129B
:04111000358EC296C0
:10111400800FC281D296E490000BF08004C281D289
:101124009612233F1214DC1211D41219B590001038
:10113400E064016019E4FFFEFDFC9000A3E0F8A365
:10114400E0F9A3E0FAA3E0FBD312084A401D9000A3
:10115400B17401F0900010E0B40110900047E06415
:10116400016033E4900010F01227EFE4FFFEFDFC71
:101174009000A3E0F8A3E0F9A3E0FAA3E0FBC31214
:10118400084A70129000DDE070069000B1F080060D
:101194009000B17401F0900047E064016003020F15
:1011A400FB90001AE004F07006900019E004F0903F
:1011B4000019E0FEA3E0C3947CEE94015003020FF7
:0C11C400FBE4900019F0A3F0900047F04D
:0311D000020FFB10
:0111D30022F9
:1037A80090024C1208A353B1BF53B2BF53B17F5319
:1037B800B27F759850438920438780438E1053C445
:1037C800DF90024CE0F8A3E0F9A3E0FAA3E0FB7F66
:1037D800407E427D0F7C001207AAEF04F404F58DA9
:0537E800D28ED29922EF
:103228009001C71208A353B1BF53B2BF53B17F5324
:10323800B27F75985043878053C4F843C4209001E7
:10324800C7E0F8A3E0F9A3E0FAA3E0FB7F407E42E1
:103258007D0F7C001207AAC374FF9FFF74FF9EFEB8
:10326800E49DFDE49CFC780812085B8FC69001C7BA
:10327800E0F8A3E0F9A3E0FAA3E0FB7F407E427DFB
:103288000F7C001207AAC374FF9FFF74FF9EFEE421
:0F3298009DFDE49CFCEFE48FC543C408D299224E
:0D3974003098FD90026FE599F0C298E0FFD9
:013981002223
:0E3982009001EDEFF0C299E0F5993099FD2229
:1032A7009002501208A353B1FB53B2FB53B3BF5361
:1032B700B4BF75F85075C40853C4DF900250E0F8E6
:1032C700A3E0F9A3E0FAA3E0FB7F407E427D0F7CF9
:1032D700001207AAC374FF9FFF74FF9EFEE49DFDC3
:1032E700E49CFC780812085B8FC6900250E0F8A3B4
:1032F700E0F9A3E0FAA3E0FB7F407E427D0F7C006C
:103307001207AAC374FF9FFF74FF9EFEE49DFDE4AE
:0A3317009CFCEFE48FC543C40822BC
:0D39900030F8FD900270E59AF0C2F8E0FFFB
:01399D002207
:0E399E00900271EFF0C2F9E0F59A30F9FD22C7
:1035EC009002541208A3538EF7438901D28CE4FF46
:1035FC00FEFDFC900254E0F8A3E0F9A3E0FAA3E08E
:10360C00FBC312084A6033758A7E758CFF308DFDC2
:10361C00C28D900254E0FCA3E0FDA3E0FEA3E0FF0A
:10362C0074FFEF24FFFFEE34FFFEED34FFFDEC34AE
:0D363C00FFFC9002541208A380B4C28C223F
:103649009002581208A3538EF7438901D28CE4FFE4
:10365900FEFDFC900258E0F8A3E0F9A3E0FAA3E02C
:10366900FBC312084A6033758AEA758CCB308DFD2D
:10367900C28D900258E0FCA3E0FDA3E0FEA3E0FFA9
:1036890074FFEF24FFFFEE34FFFEED34FFFDEC3451
:0D369900FFFC9002581208A380B4C28C22DE
:1036A6009001E81208A3538EF7438901D28CE4FFF8
:1036B600FEFDFC9001E8E0F8A3E0F9A3E0FAA3E040
:1036C600FBC312084A6033758ACA758CFA308DFDC1
:1036D600C28D9001E8E0FCA3E0FDA3E0FEA3E0FFBD
:1036E60074FFEF24FFFFEE34FFFEED34FFFDEC34F4
:0D36F600FFFC9001E81208A380B4C28C22F2
:1037030090025C1208A3538EEF438910D28EE4FF1C
:10371300FEFDFC90025CE0F8A3E0F9A3E0FAA3E06D
:10372300FBC312084A6033758BEA758DCB308FFD6E
:10373300C28F90025CE0FCA3E0FDA3E0FEA3E0FFE8
:1037430074FFEF24FFFFEE34FFFEED34FFFDEC3496
:0D375300FFFC90025C1208A380B4C28E221D
:103470009002601208A353C9BF53C9DF43C910D2D9
:10348000CAE4FFFEFDFC900260E0F8A3E0F9A3E0CF
:10349000FAA3E0FBC312084A603375CC3075CDF84F
:1034A00030CFFDC2CF900260E0FCA3E0FDA3E0FEC0
:1034B000A3E0FF74FFEF24FFFFEE34FFFEED34FFC7
:1034C000FDEC34FFFC9002601208A380B4C2CA2253
:1034D0009002641208A375C40743C408E4FFFEFD0C
:1034E000FC900264E0F8A3E0F9A3E0FAA3E0FBC3D8
:1034F00012084A603675C52C75C6CFE5C430E4FBAA
:1035000053C4EF900264E0FCA3E0FDA3E0FEA3E05F
:10351000FF74FFEF24FFFFEE34FFFEED34FFFDEC00
:0F35200034FFFC9002641208A380B153C4F72259
:10352F009002681208A375C40743C408E4FFFEFDA8
:10353F00FC900268E0F8A3E0F9A3E0FAA3E0FBC374
:10354F0012084A603675C5D875C6FFE5C430E4FB6E
:10355F0053C4EF900268E0FCA3E0FDA3E0FEA3E0FC
:10356F00FF74FFEF24FFFFEE34FFFEED34FFFDECA1
:0F357F0034FFFC9002681208A380B153C4F722F6
:03000000022B854B
:102B850075C7AA75C75575FD5A75C7AA75C7557511
:102B9500FDA5787FE4F6D8FD9000007FFF7E03E475
:0C2BA500F0A3DFFCDEFA758121022BECAE
:10006E000203B6E86480F8E933E83360110460F007
:10007E00ED33EC337009E8FCE9FDEAFEEBFF2204F8
:10008E0060DED3EB9FEA9EE99DE8C2E78CF0C2F7F3
:10009E0095F0400CE8CCF8E9CDF9EACEFAEBCFFBBF
:1000AE0012038185D0F05804700320D5B3E8047094
:1000BE00075002B2D50203C092D5EC0460F7E4CC2F
:1000CE00C0E0C398F8603B94186008400DD0E0FB88
:1000DE00020398E4FBFAC9FC8028E830E406E4C980
:1000EE00FBE4CAFCE830E305E4C9CACBFCE85407DC
:1000FE006010F8C3E913F9EA13FAEB13FBEC13FCE7
:10010E00D8F130F52FC3E49CFCEF9BFFEE9AFEED89
:10011E0099FDD0E0FBEF4E4D4C701222DB03020333
:10012E00BDEC2CFCEF33FFEE33FEED33FDED30E78F
:10013E00EB020398EF2BFFEE3AFEED39FDD0E0FB1C
:10014E0050130BBB00030203C0ED13FDEE13FEEFC5
:08015E0013FFEC13FC020398EF
:10016600EC4D6011E8497017ED33EC3304600DE493
:10017600FCFFFEFD22E933E8330470F80203B612F1
:10018600038158046009E4CC2481500628500902F2
:1001960003C02840030203BDC0E0EB4A7044B980A7
:1001A60006D0E0FB0203ACEF4E701CBD8008EBFFEF
:1001B600EAFEE9FD80EBE98DF0A4FEE5F002024FD0
:1001C600E9CDF9EAFEEBFFEF89F0A4FCE5F0CE8974
:1001D600F0A42EFFE435F0CD89F0A42DFEE435F031
:1001E6008067EF4E7005BD80D780C3EF8BF0A4AC5F
:1001F600F0EE8BF0A42CFCE435F0F8EF8AF0A42C9A
:10020600E5F038FCE433CB8DF0A42CFCE5F03BF8AC
:10021600EE8AF0A42CFCE5F038F8E433CF89F0A49C
:100226002CFCE5F038CF3400CE89F0A42FFFE5F0A2
:100236003EFEE433C98DF0A42EFEE5F039CD8AF0FA
:10024600A42FFFE5F03EFEE43DFD33D0E0FB500772
:100256000BBB000F0203C0EC2CFCEF33FFEE33FEAA
:06026600ED33FD020398D8
:10026C000203C0EC5D046005E8590470030203B698
:10027C00120381580460F6EC4860F2EC7004FDFE49
:10028C00FF22C860DB2481C85009C3986002500665
:10029C000203BD9850CAF582E9294B4A7005AB821E
:1002AC000203AC75F0007C1A7880C3EF9BEE9AEDDC
:1002BC0099400DC3EF9BFFEE9AFEED99FDE842F0DD
:1002CC00DC23ACF0D0E0FFD0E0FED0E0FDAB822030
:1002DC00E7101BEB60BAEC2CFCEF33FFEE33FEEDBA
:1002EC0033FD020398E803F830E705C0F075F00021
:1002FC00EF2FFFEE33FEED33FD40B830E7C280AA9E
:10030C0075F020800E75F010800575F0087D007E6C
:10031C00007F003392D530D50312083CEC334010EB
:10032C00EF33FFEE33FEED33FDEC33FCD5F0ED2275
:0E033C00E5F0247EA2D513CC92E7CDCEFF22B1
:10034A00EDD2E7CD33EC3392D524814006E4FFFEAB
:10035A00FDFC22FCE4CFCECDCC24E0501174FF800A
:10036A00EDC3CC13CCCD13CDCE13CECF13CF0470A7
:07037A00F030D5DE02083C63
:10092600E50824CAF582E43401F583E0050822903F
:1009360001C73007039001CAE475F0011208E0020E
:1009460006732000E97F2ED2008018EF540F249002
:10095600D43440D4FF30040BEF24BFB41A00500344
:100966002461FFE50960021509050CE50C70020516
:100976000B30070E9001C7E475F0011208E0EF0294
:1009860006B90238C27403D2078003E4C207F50829
:100996009001C71208F7E4F509F50BF50CE50960B7
:1009A600077F2012096980F5750AFFC201C200C2DD
:1009B60002C203C205C206C208120935FF700D3015
:1009C60007057F0012097AAF0CAE0B22B4255FC271
:1009D600D5C204120935FF24D0B40A00501A75F0A6
:1009E6000A780930D50508B6FF0106C6A426F62002
:1009F600D5047002D20380D924CFB41A00EF500474
:100A0600C2E5D204020C6CD20180C6D20080C0D2EC
:100A16000280BCD2D580BAD20580B47F2012096983
:100A26002002077401B5090040F1120926FF1209D8
:100A3600690209A3D208D2068095120926FB12097B
:100A460026FA120926F94A4B7006796A7A0D7BFF57
:100A560020022EE509602A7E008E8275830012062A
:100A66008C60060EEE650A70F0C2D5EBC0E0EAC0F7
:100A7600E0E9C0E0EE120CCDD0E0F9D0E0FAD0E02B
:100A8600FB120673FF60AAEBC0E0EAC0E0E9C0E033
:100A9600120969D0E02401F9D0E03400FAD0E0FB75
:100AA600E50A0460DCD50AD98087D20280A2120C3E
:100AB600AF60F7E50A7001041203CBA90A600DE5E1
:100AC6000A600914F50A120D57EF60F3EA30E702DF
:100AD600F404C3995079EAF4250A0430E701E404E2
:100AE600F50A800D120CAF60C1EA050A250A120349
:100AF600CBEA9001F6F030E701E4250A04D50A04B2
:100B060020050114120CCDE4C0E0120D579001F639
:100B1600E0601320E70714F0120951802204F0D098
:100B2600E014C0E07F00120951E50A600712094887
:100B3600150A800B300503120948D0E00209A3D03C
:100B4600E00480C4120CAF609EE50A041203CB9049
:100B560001F6EAF0E50A2005026001042404120CFD
:010B6600CDC1
:100B670074FF04C0E0120D57120951E50A2005026F
:100B77006003120948D0E0B50AE87F4512095B9087
:100B870001F6E07F2B30E7047F2DF404C0E0120963
:100B970069D0E075F00A84C0F0120952D0E012095A
:100BA700520209A3791080027908C206C208800898
:100BB700D2D5790A8004790AC2D5E50A047002F50C
:100BC7000AE4FAFDFEFF120926FC7B082001131236
:100BD7000926FD7B1030000A120926FE120926FF9E
:100BE7007B20EC3382D592D55013C3E43000069FA7
:100BF700FFE49EFEE42001039DFDE49CFCE4CBF8AA
:100C0700C201EC700CCFCECDCCE824F8F870F3809D
:100C170017C3EF33FFEE33FEED33FDEC33FCEB335D
:100C2700FB994002FB0FD8E9EB300105F8D0E0C48F
:100C370048B201C0E00AEC4D4E4F78207B0070C2ED
:100C4700EAB50A0040BCC0E0120CCFD0F0D0E020DB
:100C57000104C4C0E0C4B201C0F0120952D0F0D5FB
:100C6700F0EB0209A31209000A40530BAB580A1113
:100C77004C0A0D420BAF4F0BB7440BB7490A26433B
:100C87000BBD550AEA460B4A450AB4470D8A500A76
:100C9700152D0A192E0A3C2B0A1D230A3A200D731B
:100CA7002A09D54800000A34E50AB4FF03750A0685
:100CB700120926FC120926FD120926FE120926FF33
:100CC7009001EF020408790AA2D520031430050920
:100CD700B910020404B9080104A2D5200602500184
:100CE700042002689202B509005034C0E07F20302A
:100CF70003197F30A20272067205500F120D26C229
:100D070002C206C205C2087F30800F300503E9C062
:100D1700E0120969300503D0E0F9D0E0B509CC301D
:100D270005177F30B9100C1209697F583004077F07
:100D3700788003B908031209693002057F2D02097B
:100D4700697F202008F87F2B2006F322920280CFAC
:100D57007F00B40700500B24EFF582E43401F583DC
:100D6700E0FF22286E756C6C2900D201120926302B
:100D770001F8C201780930D50108F60209D52D50CE
:100D87004349581209262403B405004001E4900D95
:100D9700859312095A743A12095AD2037509040243
:020DA7000BAB94
:10038100E9D2E7C933E833F892D5EDD2E7CD33ECC2
:0703910033FC5002B2D5223B
:10039800EC30E7100FBF000C0EBE00080DBD0004C6
:1003A8000BEB6014A2D5EB13FCED92E7FD2274FF72
:1003B800FCFDFEFF22E480F8A2D574FF13FC7D80CB
:0303C800E480EFDF
:1003CB00F920E73624F950037907E4F42402FBE51E
:1003DB0082158270021583DBF6E024FB501BE9606B
:1003EB0014E4F0E582158270021583E004F0B40A80
:0D03FB0008E4F0D9EE7401F00A22C2D52208
:10040800ED33EC3392D5FA602AB4FF33EDC2E77BC3
:10041800FF60067A04792DE4227A04793620D5041F
:100428007A047931224E614E002B494E46002D49FF
:100438004E4600E47A08F0A3DAFC7B00740722C079
:1004480083C082ECC0E0EDC0E0EEC0E0EFC0E0EABF
:1004580075F010A4CAABF075F04DA42BFBE435F091
:10046800FCEA2410FAEB34C5FBEC34D9FCEDC2E706
:10047800FF75F056A4F42411C5F0F434C58FF0A428
:100488002AE5F03BE43CF020E71412053DD0E0FFFC
:10049800D0E0FED0E0FDD0E0FC12026F8014F4043E
:1004A80012053DD0E0FFD0E0FED0E0FDD0E0FC1228
:1004B8000166D082D083E0FAEDD2E7CD33EC332465
:1004C80082FBE4C3CF33CFCE33CECD33CD33DBF392
:1004D8007B0775F00A846004F0A31B0AE5F0F0A31B
:1004E8008FF0740AA4FFACF08EF0740AA42CFEAC52
:1004F800F050010C8DF0740AA42CFDE435F0F0A343
:05050800DBDE74072298
:10050D003F8000004120000042C80000447A0000F6
:10051D00461C400047C35000497424004B18968078
:10052D004CBEBC205A0E1BCA6753C21C749DC5AE6F
:10053D00FB60065407601C232312056BEB543860D7
:10054D0009120557120566120166ECF8EDF9EEFA7F
:10055D00EFCB22EB12056680F1543803241C900575
:10056D000DFE93FC0EEE93FD0EEE930ECE93FF2239
:102BB100020DA9E493A3F8E493A34003F68001F284
:102BC10008DFF48029E493A3F85407240CC8C33325
:102BD100C4540F4420C8834004F456800146F6DFF4
:102BE100E4800B0102040810204080901D6BE47EFC
:102BF100019360BCA3FF543F30E509541FFEE493E9
:102C0100A360010ECF54C025E060A840B8E493A3AF
:102C1100FAE493A3F8E493A3C8C582C8CAC583CADA
:102C2100F0A3C8C582C8CAC583CADFE9DEE780BE92
:011F3F0000A1
:10057D00E709F608DFFA8046E709F208DFFA803E60
:10058D0088828C83E709F0A3DFFA8032E309F6084D
:10059D00DFFA8078E309F208DFFA807088828C83B5
:1005AD00E309F0A3DFFA806489828A83E0A3F60869
:1005BD00DFFA805889828A83E0A3F208DFFA804C43
:1005CD0080D280FA80C680D4806980F2803380101A
:1005DD0080A680EA809A80A880DA80E280CA803383
:1005ED0089828A83ECFAE493A3C8C582C8CCC583FB
:1005FD00CCF0A3C8C582C8CCC583CCDFE9DEE780CB
:10060D000D89828A83E493A3F608DFF9ECFAA9F049
:10061D00EDFB2289828A83ECFAE0A3C8C582C8CC9F
:10062D00C583CCF0A3C8C582C8CCC583CCDFEADEB8
:10063D00E880DB89828A83E493A3F208DFF980CC1A
:10064D0088F0EF60010E4E60C388F0ED2402B40413
:10065D000050B9F582EB2402B4040050AF232345BA
:06066D0082239005CD730D
:10067300BB010689828A83E0225002E722BBFE0285
:09068300E32289828A83E49322B8
:10068C00BB010CE58229F582E5833AF583E0225023
:10069C0006E92582F8E622BBFE06E92582F8E2226D
:0D06AC00E58229F582E5833AF583E4932287
:1006B900BB010689828A83F0225002F722BBFE0120
:0206C900F3221A
:1006CB00F8BB010DE58229F582E5833AF583E8F065
:1006DB00225006E92582C8F622BBFE05E92582C811
:0206EB00F222F9
:1006ED00BC000BBE0029EF8DF084FFADF022E4CCF1
:1006FD00F875F008EF2FFFEE33FEEC33FCEE9DECBA
:10070D00984005FCEE9DFE0FD5F0E9E4CEFD22EDFF
:10071D00F8F5F0EE8420D21CFEADF075F008EF2F49
:10072D00FFED33FD4007985006D5F0F222C398FD3A
:05073D000FD5F0EA22D7
:10074200C5F0F8A3E028F0C5F0F8E5821582700242
:060752001583E038F022DF
:10075800A3F8E0C5F025F0F0E58215827002158354
:06076800E0C838F0E822B1
:10076E0075F008758200EF2FFFEE33FECD33CDCC42
:10077E0033CCC58233C5829BED9AEC99E5829840C5
:10078E000CF582EE9BFEED9AFDEC99FC0FD5F0D6A2
:10079E00E4CEFBE4CDFAE4CCF9A88222B800C1B9CC
:1007AE000059BA002DEC8BF084CFCECDFCE5F0CB0A
:1007BE00F97818EF2FFFEE33FEED33FDEC33FCEB43
:1007CE0033FB10D703994004EB99FB0FD8E5E4F9FE
:1007DE00FA227818EF2FFFEE33FEED33FDEC33FCEB
:1007EE00C933C910D7059BE99A4007EC9BFCE99ADF
:1007FE00F90FD8E0E4C9FAE4CCFB2275F010EF2F24
:10080E00FFEE33FEED33FDCC33CCC833C810D70723
:10081E009BEC9AE899400AED9BFDEC9AFCE899F85E
:0E082E000FD5F0DAE4CDFBE4CCFAE4C8F922F1
:0E083C00C3E49FFFE49EFEE49DFDE49CFC22CD
:10084A00EB9FF5F0EA9E42F0E99D42F0E89C45F004
:01085A00227B
:10085B00E8600FECC313FCED13FDEE13FEEF13FF7B
:03086B00D8F1229F
:10086E007401FF3395E0FEFDFCA3A3A3E0CF2FF0B0
:10087E00E582158270021583E0CE3EF0E582158288
:10088E0070021583E0CD3DF0E5821582700215836E
:05089E00E0CC3CF0225B
:0C08A300ECF0A3EDF0A3EEF0A3EFF022C8
:1008AF00A8828583F0D083D0821208C61208C612A0
:1008BF0008C61208C6E473E493A3C583C5F0C583C5
:1008CF00C8C582C8F0A3C583C5F0C583C8C582C893
:0108DF0022F6
:1008E000F8E0FBA3A3E0F925F0F0E58215827002A1
:0708F0001583E0FA38F02245
:0908F700EBF0A3EAF0A3E9F02202
:10090000D083D082F8E4937012740193700DA3A386
:1009100093F8740193F5828883E47374029368609A
:06092000EFA3A3A380DF9A
:1038C200EFB40A07740D1238CD740A309811A89912
:1038D200B8130CC2983098FDA899C298B811F63066
:0738E20099FDC299F599223E
:00000001FF
